:020000040800F2
:1000000000000220D15B0008791600087B1600086A
:100010007D1600087F160008811600080000000009
:10002000000000000000000000000000831600082F
:1000300085160008000000008716000889160008D1
:10004000215C0008215C0008215C0008215C00089C
:10005000215C0008215C0008215C0008215C00088C
:10006000215C0008215C0008215C0008215C00087C
:10007000215C0008215C0008215C0008215C00086C
:10008000215C0008215C0008215C0008215C00085C
:10009000215C0008215C0008215C0008215C00084C
:1000A000215C0008215C0008215C0008215C00083C
:1000B000215C0008215C0008215C0008215C00082C
:1000C000215C0008215C0008215C0008215C00081C
:1000D000215C0008215C0008215C0008215C00080C
:1000E000215C0008215C0008215C0008215C0008FC
:1000F000215C0008215C0008215C0008215C0008EC
:10010000215C0008215C000895170008215C0008AC
:10011000215C0008215C0008215C0008215C0008CB
:10012000215C0008215C0008215C0008215C0008BB
:10013000215C00080000000000000000215C0008B5
:10014000215C0008215C0008215C0008215C00089B
:10015000215C0008215C0008215C0008215C00088B
:10016000215C0008215C0008215C0008215C00087B
:10017000215C0008215C0008000000000000000075
:08018000215C0008215C00086D
:1001900010B5054C237833B9044B13B10448AFF3C1
:1001A00000800123237010BDE40100200000000046
:1001B000D884000808B5034B1BB103490348AFF3CB
:1001C000008008BD00000000E8010020D88400087D
:1001D000034613F8012B002AFBD1181A0138704787
:1001E00001F0FF01102A2BDB10F0070F08D010F8E8
:1001F000013B013A8B422DD010F0070F42B3F6D1EC
:10020000F0B441EA012141EA014122F007047FF004
:1002100000070023F0E80256083C85EA010586EA5B
:10022000010685FA47F5A3FA87F586FA47F6A5FA97
:1002300087F68EB9EED1F0BC01F0FF0102F00702A3
:1002400032B110F8013B013A83EA010313B1F8D14E
:100250000020704701387047002D06BF354603382F
:10026000073815F0010F07D1013015F4807F02BF68
:10027000013015F4C03F0130F0BC0138704700BFB9
:1002800081F0004102E000BF83F0004330B54FEA47
:1002900041044FEA430594EA050F08BF90EA020FB4
:1002A0001FBF54EA000C55EA020C7FEA645C7FEA47
:1002B000655C00F0E2804FEA5454D4EB5555B8BF6A
:1002C0006D420CDD2C4480EA020281EA030382EADB
:1002D000000083EA010180EA020281EA0303362D6D
:1002E00088BF30BD11F0004F4FEA01314FF4801C40
:1002F0004CEA113102D0404261EB410113F0004F52
:100300004FEA03334CEA133302D0524263EB430308
:1003100094EA050F00F0A780A4F10104D5F1200EA6
:100320000DDB02FA0EFC22FA05F2801841F1000101
:1003300003FA0EF2801843FA05F359410EE0A5F1D5
:1003400020050EF1200E012A03FA0EFC28BF4CF006
:10035000020C43FA05F3C01851EBE37101F00045BC
:1003600007D54FF0000EDCF1000C7EEB00006EEBC9
:100370000101B1F5801F1BD3B1F5001F0CD3490853
:100380005FEA30004FEA3C0C04F101044FEA4452AA
:1003900012F5800F80F09A80BCF1004F08BF5FEA31
:1003A000500C50F1000041EB045141EA050130BD11
:1003B0005FEA4C0C404141EB010111F4801FA4F1B4
:1003C0000104E9D191F0000F04BF01460020B1FA09
:1003D00081F308BF2033A3F10B03B3F120020CDA41
:1003E0000C3208DD02F1140CC2F10C0201FA0CF01F
:1003F00021FA02F10CE002F11402D8BFC2F1200C84
:1004000001FA02F120FA0CFCDCBF41EA0C01904039
:10041000E41AA2BF01EB0451294330BD6FEA040482
:100420001F3C1CDA0C340EDC04F11404C4F120026D
:1004300020FA04F001FA02F340EA030021FA04F37F
:1004400045EA030130BDC4F10C04C4F1200220FAD6
:1004500002F001FA04F340EA0300294630BD21FA14
:1004600004F0294630BD94F0000F83F4801306BFDA
:1004700081F480110134013D4EE77FEA645C18BFCE
:100480007FEA655C29D094EA050F08BF90EA020F65
:1004900005D054EA000C04BF1946104630BD91EA5D
:1004A000030F1EBF0021002030BD5FEA545C05D160
:1004B0004000494128BF41F0004130BD14F580049F
:1004C0003CBF01F5801130BD01F0004545F0FE4113
:1004D00041F470014FF0000030BD7FEA645C1ABF48
:1004E000194610467FEA655C1CBF0B46024650EA7F
:1004F000013406BF52EA033591EA030F41F40021AB
:1005000030BD00BF90F0000F04BF0021704730B530
:100510004FF4806404F132044FF000054FF0000105
:1005200050E700BF90F0000F04BF0021704730B5C6
:100530004FF4806404F1320410F0004548BF40429B
:100540004FF000013EE700BF42004FEAE2014FEAF0
:1005500031014FEA02701FBF12F07F4393F07F4FCB
:1005600081F06051704732F07F4208BF704793F0CE
:100570007F4F04BF41F40021704730B54FF46074E1
:1005800001F0004521F000411CE700BF50EA0102E4
:1005900008BF704730B54FF000050AE050EA01028D
:1005A00008BF704730B511F0004502D5404261EBFD
:1005B00041014FF4806404F132045FEA915C3FF43E
:1005C000D8AE4FF003025FEADC0C18BF03325FEADB
:1005D000DC0C18BF033202EBDC02C2F1200300FA8C
:1005E00003FC20FA02F001FA03FE40EA0E0021FAB1
:1005F00002F11444BDE600BF70B54FF0FF0C4CF49F
:10060000E06C1CEA11541DBF1CEA135594EA0C0F50
:1006100095EA0C0F00F0DEF82C4481EA030621EA8B
:100620004C5123EA4C5350EA013518BF52EA0335C6
:1006300041F4801143F4801338D0A0FB02CE4FF078
:100640000005E1FB02E506F00042E0FB03E54FF0A8
:100650000006E1FB03569CF0000F18BF4EF0010EA0
:10066000A4F1FF04B6F5007F64F5407404D25FEA9C
:100670004E0E6D4146EB060642EAC62141EA55514F
:100680004FEAC52040EA5E504FEACE2EB4F1FD0C91
:1006900088BFBCF5E06F1ED8BEF1004F08BF5FEA0F
:1006A000500E50F1000041EB045170BD06F00046C1
:1006B00046EA010140EA020081EA0301B4EB5C046E
:1006C000C2BFD4EB0C0541EA045170BD41F4801166
:1006D0004FF0000E013C00F3AB8014F1360FDEBF8B
:1006E000002001F0004170BDC4F10004203C35DA67
:1006F0000C341BDC04F11404C4F1200500FA05F3EA
:1007000020FA04F001FA05F240EA020001F000428A
:1007100021F0004110EBD37021FA04F642EB060100
:100720005EEA430E08BF20EAD37070BDC4F10C042A
:10073000C4F1200500FA04F320FA05F001FA04F2EE
:1007400040EA020001F0004110EBD37041F10001DA
:100750005EEA430E08BF20EAD37070BDC4F12005E5
:1007600000FA05F24EEA020E20FA04F301FA05F24D
:1007700043EA020321FA04F001F0004121FA04F2F5
:1007800020EA020000EBD3705EEA430E08BF20EAC5
:10079000D37070BD94F0000F0FD101F000464000FF
:1007A00041EB010111F4801F08BF013CF7D041EA81
:1007B000060195F0000F18BF704703F00046520085
:1007C00043EB030313F4801F08BF013DF7D043EA56
:1007D0000603704794EA0C0F0CEA135518BF95EA0C
:1007E0000C0F0CD050EA410618BF52EA4306D1D193
:1007F00081EA030101F000414FF0000070BD50EAB2
:10080000410606BF1046194652EA430619D094EA3B
:100810000C0F02D150EA013613D195EA0C0F05D125
:1008200052EA03361CBF104619460AD181EA030179
:1008300001F0004141F0FE4141F470014FF0000031
:1008400070BD41F0FE4141F4780170BD70B54FF0CC
:10085000FF0C4CF4E06C1CEA11541DBF1CEA13554C
:1008600094EA0C0F95EA0C0F00F0A7F8A4EB05042E
:1008700081EA030E52EA03354FEA013100F0888025
:100880004FEA03334FF0805545EA131343EA1263EE
:100890004FEA022245EA111545EA10654FEA0026A3
:1008A0000EF000419D4208BF964244F1FD0404F55C
:1008B000407402D25B084FEA3202B61A65EB0305B8
:1008C0005B084FEA32024FF480104FF4002CB6EB75
:1008D000020E75EB030E22BFB61A754640EA0C00F5
:1008E0005B084FEA3202B6EB020E75EB030E22BF35
:1008F000B61A754640EA5C005B084FEA3202B6EB76
:10090000020E75EB030E22BFB61A754640EA9C0034
:100910005B084FEA3202B6EB020E75EB030E22BF04
:10092000B61A754640EADC0055EA060E18D04FEAC2
:10093000051545EA16754FEA06164FEAC30343EA62
:1009400052734FEAC2025FEA1C1CC0D111F4801F2F
:100950000BD141EA00014FF000004FF0004CB6E728
:1009600011F4801F04BF01430020B4F1FD0C88BFC7
:10097000BCF5E06F3FF6AFAEB5EB030C04BFB6EBD2
:10098000020C5FEA500C50F1000041EB045170BDC5
:100990000EF0004E4EEA113114EB5C04C2BFD4EBF2
:1009A0000C0541EA045170BD41F480114FF0000E76
:1009B000013C90E645EA060E8DE60CEA135594EAF2
:1009C0000C0F08BF95EA0C0F3FF43BAF94EA0C0FF5
:1009D0000AD150EA01347FF434AF95EA0C0F7FF46A
:1009E00025AF104619462CE795EA0C0F06D152EABE
:1009F00003353FF4FDAE1046194622E750EA4106A2
:100A000018BF52EA43067FF4C5AE50EA41047FF4B2
:100A10000DAF52EA43057FF4EBAE12E74FF0FF3C17
:100A200006E000BF4FF0010C02E000BF4FF0010CE8
:100A30004DF804CD4FEA410C7FEA6C5C4FEA430C61
:100A400018BF7FEA6C5C1BD001B050EA410C0CBFB0
:100A500052EA430C91EA030F02BF90EA020F002012
:100A6000704710F1000F91EA030F58BF994208BF79
:100A700090422CBFD8176FEAE37040F00100704736
:100A80004FEA410C7FEA6C5C02D150EA013C07D18D
:100A90004FEA430C7FEA6C5CD6D152EA033CD3D0D8
:100AA0005DF8040B704700BF8446104662468C46D2
:100AB0001946634600E000BF01B5FFF7B7FF002805
:100AC00048BF10F1000F01BD4DF808EDFFF7F4FF2E
:100AD0000CBF012000205DF808FB00BF4DF808EDB9
:100AE000FFF7EAFF34BF012000205DF808FB00BFDC
:100AF0004DF808EDFFF7E0FF94BF012000205DF8FE
:100B000008FB00BF4DF808EDFFF7CEFF94BF0120B2
:100B100000205DF808FB00BF4DF808EDFFF7C4FFAB
:100B200034BF012000205DF808FB00BF4FEA410CF4
:100B30007FEA6C5C02D150EA013C0AD14FEA430CD7
:100B40007FEA6C5C02D152EA033C02D14FF0000014
:100B500070474FF0010070474FEA410212F5001252
:100B600015D211D56FF47873B3EB625212D94FEAF4
:100B7000C12343F0004343EA505311F0004F23FADE
:100B800002F018BF404270474FF00000704750EA33
:100B9000013005D111F0004008BF6FF000407047F0
:100BA0004FF00000704700BF53B94AB9002908BF91
:100BB00000281CBF4FF0FF314FF0FF3000F072B93A
:100BC000ADF1080C6DE904CE00F006F8DDF804E0A4
:100BD000DDE9022304B070472DE9F047089E044682
:100BE0008846002B4BD18A42154667D9B2FA82F269
:100BF0004AB1C2F1200701FA02F320FA07F7954043
:100C000047EA030894404FEA154E230CB8FBFEF761
:100C10001FFA85FC0EFB178843EA084307FB0CF11B
:100C2000994209D9EB1807F1FF3080F01B819942F6
:100C300040F21881023F2B445B1AA4B2B3FBFEF0D2
:100C40000EFB103344EA034400FB0CFCA44509D915
:100C50002C1900F1FF3380F00781A44540F2048194
:100C600002382C4440EA0740A4EB0C0400271EB1D4
:100C7000D4400023C6E900433946BDE8F0878B42E3
:100C800009D9002E00F0EB800027C6E900013846A4
:100C90003946BDE8F087B3FA83F7002F47D18B427E
:100CA00002D3824200F2FA80841A61EB030301202E
:100CB0009846002EE0D0C6E90048DDE702B9FFDE25
:100CC000B2FA82F2002A40F08F80491B4FEA154E9B
:100CD0001FFA85F80127B1FBFEFC230C0EFB1C114B
:100CE00043EA014308FB0CF1994207D9EB180CF1D8
:100CF000FF3002D2994200F2CD808446591AA3B245
:100D0000B1FBFEF00EFB101443EA044408FB00F8AC
:100D1000A04507D92C1900F1FF3302D2A04500F2FB
:100D2000B6801846A4EB080440EA0C409FE7C7F1E0
:100D3000200CBB4022FA0CFE4EEA030E01FA07F427
:100D400020FA0CF521FA0CF34FEA1E482543B3FBB9
:100D5000F8F92C0C08FB19331FFA8EFA44EA034306
:100D600009FB0AF49C4202FA07F200FA07F10BD9D8
:100D70001EEB030309F1FF3080F087809C4240F2B4
:100D80008480A9F1020973441B1BADB2B3FBF8F0D8
:100D900008FB103345EA034400FB0AFAA24508D9D0
:100DA0001EEB040400F1FF336BD2A24569D902386F
:100DB000744440EA0940A0FB0289A4EB0A044C45B4
:100DC000C2464B4654D351D0002E69D0B1EB0A0530
:100DD00064EB030404FA0CFCFD40FC404CEA0505FE
:100DE000C6E90054002747E7C2F1200320FA03F7C1
:100DF000954001FA02F021FA03F34FEA154E384309
:100E0000010CB3FBFEF71FFA85F80EFB173341EA1E
:100E1000034107FB08F38B4204FA02F407D969186F
:100E200007F1FF3C2FD28B422DD9023F2944CB1A28
:100E300081B2B3FBFEF00EFB103341EA034100FB2D
:100E400008F38B4207D9691800F1FF3C17D28B4297
:100E500015D902382944C91A40EA07473BE7374603
:100E6000304609E70746E7E61846FBE64145ABD2C0
:100E7000B8EB020A69EB0E0201381346A4E760469C
:100E8000E9E7184695E76746D1E781467CE70238EF
:100E90002C4447E7ACF1020C2B442FE7384608E717
:100EA0003746E9E6704700BF10B504460E4B187888
:100EB0004FF47A73B3FBF0F30C4A1068B0FBF3F015
:100EC00002F0DCFB68B90F2C01D901200AE00022F6
:100ED00021464FF0FF3002F091FB054B1C600020D3
:100EE00000E0012010BD00BF00000020080000202D
:100EF0000400002008B50B4B1A6842F400721A6017
:100F00001A6842F480621A601A6842F480721A60A9
:100F1000032002F061FB0020FFF7C6FF02F05EFE37
:100F2000002008BD003C0240034A1168034B1B78B7
:100F30000B441360704700BF18020020000000201F
:100F4000014B1868704700BF1802002038B50446EE
:100F5000FFF7F6FF0546B4F1FF3F02D0044B1B78C4
:100F60001C44FFF7EDFF401BA042FAD338BD00BF81
:100F7000000000200F49D1F8883043F47003C1F815
:100F800088300D4B1A6842F001021A600020986008
:100F90001A6822F0847222F480321A60074A5A607A
:100FA0001A6822F480221A60D8604FF000638B60C8
:100FB000704700BF00ED00E0003802401030002410
:100FC00000230F2B00F2D780F0B482B039E0072263
:100FD00000E00022B2403A430234674E46F8242033
:100FE000664A1468EA4302EA04064F6817F4803F31
:100FF00001D045EA0406614C2660646802EA0406F2
:101000004F6817F4003F01D045EA04065B4C666068
:10101000A46802EA04064F6817F4801F01D045EA6D
:101020000406564CA660E46822404E6816F4001F81
:1010300001D045EA0402514CE26001330F2B00F26B
:10104000978001229A400C6804EA0205AA42F4D172
:101050004C68022C01D0122C10D1DE08083650F852
:1010600026C003F00704A7000F24BC402CEA040CA0
:101070000C69BC4044EA0C0440F8264004685F0058
:101080000326BE40F64306EA040C4C6804F0030451
:10109000BC4044EA0C0404604C6804F1FF3CBCF121
:1010A000010F03D9112C01D0122C10D1846806EA4B
:1010B000040CCC68BC4044EA0C048460446824EA14
:1010C00002024C68C4F300149C4014434460C2689C
:1010D00016408A68BA403243C2604A6812F0805FA4
:1010E000ABD000220192264A546C44F480445464EC
:1010F000526C02F480420192019A9C08A61C1E4A7E
:1011000052F8267003F0030296000F22B24027EA3D
:1011100002071C4A90423FF45CAF02F580629042A5
:101120001AD002F58062904218D002F58062904297
:1011300016D002F58062904214D002F5806290428F
:1011400012D002F58062904210D002F58062904287
:101150003FF43DAF08223DE701223BE7022239E799
:10116000032237E7042235E7052233E7062231E779
:1011700002B0F0BC7047704700380140003C0140AD
:1011800000380240000002400369194201D10020EA
:1011900070470120704712B909048161704781616D
:1011A0007047000000B585B01648174B03604FF438
:1011B0008033436000238360036183610362C36201
:1011C000124A8262C3600122C2610363426102F07B
:1011D00019FB68B9042300930123019303230293AD
:1011E0006946084802F032FC38B905B05DF804FBE6
:1011F0004E21074801F012FBECE75821044801F0AA
:101200000DFBF2E764020020002001400100000F06
:101210000885000800B585B01648174B03604FF4E9
:101220008033436000238360036183610362C36290
:10123000124A8262C3600122C2610363426102F00A
:10124000E1FA60B9002300930122019202936946FA
:10125000084802F0FBFB38B905B05DF804FB7121CA
:10126000074801F0DBFAEDE77B21054801F0D6FAEB
:10127000F2E700BF1C020020002101400100000F26
:101280000885000800B585B01648174B03604FF479
:101290008033436000238360036183610362C36220
:1012A000124A8262C3600122C2610363426102F09A
:1012B000A9FA60B9012300930193002302936946C0
:1012C000084802F0C3FB38B905B05DF804FB94216F
:1012D000074801F0A3FAEDE79E21054801F09EFAC8
:1012E000F2E700BFAC020020002201400100000F25
:1012F0000885000800B589B00368274A934208D0E2
:10130000264A93421BD0264A93422ED009B05DF85C
:1013100004FB00210091234B5A6C42F480725A6402
:101320005B6C03F480730093009B102303930323EF
:101330000493059103A91C48FFF742FEE6E700214C
:101340000191184B5A6C42F400725A645B6C03F4BE
:1013500000730193019B09230393032304930591D5
:1013600003A91148FFF72CFED0E7002102910D4B95
:101370005A6C42F480625A645B6C03F4806302939B
:10138000029B0623039303230493059103A90648B4
:10139000FFF716FEBAE700BF002001400021014020
:1013A00000220140003802400000024010B584B025
:1013B0000423009301230193032302930C4C6946F9
:1013C000204602F043FB204602F046FA322108484C
:1013D00002F0DEFA0028F9D1054C204602F033FB7A
:1013E000044B1880204602F0B3FA04B010BD00BFD1
:1013F000640200202805002010B584B00123019369
:101400000323029304A9002341F8103D184C204601
:1014100002F01CFB204602F01FFA3221144802F0B1
:10142000B7FA0028F9D1124C204602F00CFB114B00
:101430001880204602F08CFA04A9032341F8103DDD
:10144000204602F003FB204602F006FA322108484B
:1014500002F09EFA0028F9D1054C204602F0F3FA7A
:10146000044BD880204602F073FA04B010BD00BFD0
:101470001C020020E8EF002010B584B00123019386
:101480000322029204A941F8103D184C204602F0B4
:10149000DDFA204602F0E0F93221144802F078FA31
:1014A0000028F9D1114C204602F0CDFA104B58809B
:1014B000204602F04DFA04A9022341F8103D2046CF
:1014C00002F0C4FA204602F0C7F93221074802F0C0
:1014D0005FFA0028F9D1054C204602F0B4FA044B1B
:1014E0009880204602F034FA04B010BDAC0200200F
:1014F000E8EF002010B584B0012301930323029389
:1015000004A9002341F8103D184C204602F09EFA31
:10151000204602F0A1F93221144802F039FA0028DD
:10152000F9D1124C204602F08EFA114B1881204658
:1015300002F00EFA04A9032341F8103D204602F000
:1015400085FA204602F088F93221084802F020FA94
:101550000028F9D1054C204602F075FA044BD881D9
:10156000204602F0F5F904B010BD00BF1C020020B7
:10157000E8EF002010B584B001230193032202920A
:1015800004A941F8103D184C204602F05FFA2046AD
:1015900002F062F93221144802F0FAF90028F9D178
:1015A000114C204602F04FFA104B5881204602F0B1
:1015B000CFF904A9022341F8103D204602F046FA73
:1015C000204602F049F93221074802F0E1F90028EB
:1015D000F9D1054C204602F036FA044B988120469A
:1015E00002F0B6F904B010BDAC020020E8EF002014
:1015F00000230BE01C4A32F81310181D32F81000BB
:10160000091A03F1080022F810100133032BF1DD51
:10161000154A138AD18A0B445B085383918A134A73
:101620001288914213D9104A012111770E4A518A2A
:101630000F4A128891420ED90B4A0121D1760D4AE8
:10164000128893420BD8084B0022DA777047064A7B
:1016500000211177EAE7044A0021D176EFE7024B37
:101660000122DA77704700BFE8EF00200E0000206B
:10167000100000200C0000207047FEE7FEE7FEE7A8
:10168000FEE770477047704710B5FFF74DFC02F05A
:101690001CF8324C207802F0EBFF01F01FFFFFF73F
:1016A00085FE2F4B998A1A8D8A1A9A851985598A2F
:1016B0005A8D8A1ADA8559856378DBB2012B25D0D9
:1016C0000023284A1380284A1380284A13800023C5
:1016D000274A1360274A1360274A536293621F4BBD
:1016E0009B78DBB2012B14D00023244A1380244AB8
:1016F00013800023234A1360234A9360174BDB7A3D
:10170000DBB2012B27D003F0DDFA10BD03F0F8F8AF
:10171000E5E703F021FA1D4BB3F90C3007EE903AE0
:10172000164B1B881A4A03F5FA6102EB8101F8EEA9
:10173000E77AC1ED007A1049886903F57A6102EB16
:10174000810108601049096903F5BB53103302EBAE
:1017500083031960D2E703F06FFAD4E71405002081
:10176000E8EF002004050020FC0200200803002010
:10177000F8020020100300202C05002006050020A0
:10178000180300200C030020700500205C050020D9
:101790008805002008B51E4802F0A6FB1D4B5B79AA
:1017A000DBB2012B30D11C4A138801339BB213806A
:1017B000013B072B24D8DFE803F004070B101317B5
:1017C0001A1DFFF7D7FE21E0062000F071F91DE099
:1017D000FFF752FE00F052F918E0FFF78BFE15E01C
:1017E000092000F065F911E0FFF706FE0EE000F0B9
:1017F00045F90BE0FFF7FCFE074B00221A8005E0DD
:10180000054B00221A8001E000F038F908BD00BF46
:10181000A00300201405002020F0002090F83830AC
:10182000012B22D030B4012280F83820022380F826
:1018300039300468636823F0700363600468636888
:101840000D682B4363600468A36823F08003A360E2
:101850000468A36849680B43A36080F8392000231B
:1018600080F83830184630BC70470220704790F836
:101870003830012B25D0012380F83830CB6823F491
:1018800040738A68134323F480634A68134323F444
:1018900000630A68134323F480530A69134323F453
:1018A00000534A69134323F480438A69134323F4A2
:1018B0000043134302685364002380F8383018460D
:1018C000704702207047704770470000F0B58BB03A
:1018D000002401942A4B1A6B42F004021A631A6B1B
:1018E00002F004020192019A02941A6B42F0010282
:1018F0001A631A6B02F001020292029A03941A6BA5
:1019000042F002021A631A6B02F002020392039A77
:1019100004941A6B42F008021A631B6B03F008036D
:101920000493049B174F224646F2CF113846FFF727
:1019300032FC154D22464FF480512846FFF72BFC10
:1019400046F2CF130593012606960794089405A93D
:101950003846FFF735FB4FF48053059306960794FE
:10196000089405A92846FFF72BFB0423059306944A
:10197000079405A90548FFF723FB0BB0F0BD00BF96
:10198000003802400008024000040240000C0240FF
:1019900010B5074C04212046FFF7F6FB0421204632
:1019A000FFF7F2FB012801D0012010BD0020FCE769
:1019B000000C024010B50C4C01224FF4005120469F
:1019C000FFF7E9FB01224FF480412046FFF7E3FBDC
:1019D000012280212046FFF7DEFB01224FF48071B7
:1019E0002046FFF7D8FB10BD0008024010B50446A2
:1019F00018B314F0010F23D000224FF400511E48F9
:101A0000FFF7C9FB14F0020F21D000224FF48041F0
:101A10001948FFF7C0FB14F0040F1FD000228021EB
:101A20001548FFF7B8FB14F0080F1DD101224FF441
:101A300080711148FFF7AFFB10BDFFF7BBFFD8E780
:101A400001224FF400510C48FFF7A5FBDAE7012211
:101A50004FF480410848FFF79EFBDCE7012280211C
:101A60000548FFF798FBDEE700224FF4807102483B
:101A7000FFF791FBE0E700BF0008024010B50B4CF8
:101A8000002201212046FFF786FB0022022120468A
:101A9000FFF781FB002204212046FFF77CFB002298
:101AA00008212046FFF777FB10BD00BF0008024069
:101AB00010B5044610F0010F1DD0012211461A483E
:101AC000FFF769FB14F0020F1BD001220221164818
:101AD000FFF761FB14F0040F19D001220421124812
:101AE000FFF759FB14F0080F17D1002208210E4808
:101AF000FFF751FB10BD002201210B48FFF74BFB04
:101B0000E0E7002202210848FFF745FBE2E7002258
:101B100004210548FFF73FFBE4E7012208210248C2
:101B2000FFF739FBE6E700BF00080240F8B50546BD
:101B30000F4616461C463BE02CB1FFF701FA069B08
:101B4000C01AA04234D32A68536823F0E0035360DC
:101B50006B68B3F5827F0BD0AB6AB3F5005F14D02E
:101B6000012385F85130002385F85030032027E009
:101B7000AB68B3F5004F02D0B3F5806FECD12A68A3
:101B8000136823F040031360E6E72A68136823F420
:101B900000531B041B0C13602A68136843F40053A2
:101BA0001360DDE70123B34209D0B4F1FF3FC3D195
:101BB0002B689B6837EA0303F4D00023F3E7002087
:101BC000F8BD10B582B0044600920B460022802179
:101BD000FFF7ACFF034610B9184602B010BD636DA5
:101BE00043F0200363650323F6E700283BD010B5DC
:101BF00004460023836290F85130002B2ED002233C
:101C000084F851302268136823F04003136063683E
:101C1000A2681343E26813432269134362691343C2
:101C2000A26902F400721343E2691343226A134368
:101C3000A16A22680B431360638B03F00403616A9B
:101C400022680B4353602268D36923F40063D36195
:101C500000206065012384F8513010BD80F85030B9
:101C600002F0F0FBCBE7012070472DE9F04184B092
:101C70001E4690F85030012B00F0C88004460D46F7
:101C80009046012380F85030FFF75AF9074694F840
:101C90005130DBB2012B0AD00223012284F85120FB
:101CA000002284F85020184604B0BDE8F081002DD1
:101CB00000F0A480B8F1000F00F0A280032384F8A4
:101CC0005130002363652563A4F83480A4F836807E
:101CD000A363A387E38763642364A368B3F5004F1A
:101CE0001BD023681A6812F0400F03D11A6842F023
:101CF00040021A60E368B3F5006F14D063681BB14B
:101D0000E38E9BB2012B3ED1236815F8012B1A7389
:101D1000E38E013B9BB2E38635E02268136843F40F
:101D200080431360DDE763681BB1E38E9BB2012B38
:101D30000DD1236835F8022BDA60E38E013B9BB2AC
:101D4000E38604E0002E5DD0B6F1FF3F0FD1E38EB5
:101D50009BB27BB323689A6812F0020FF2D035F879
:101D6000022BDA60E38E013B9BB2E386EFE7FFF7DD
:101D7000E7F8C01BB042EAD303238EE7002E43D01E
:101D8000B6F1FF3F0FD1E38E9BB29BB123689A68F7
:101D900012F0020FF2D015F8012B1A73E38E013BFB
:101DA0009BB2E386EFE7FFF7CBF8C01BB042EAD364
:101DB000032372E700973346012202212046FFF7F2
:101DC000B5FE08B1032368E73A4631462046FFF7DF
:101DD000F8FE034618B12023636501235DE7A2687E
:101DE00032B903922268D168039192680392039AF0
:101DF000626D002A3FF451AF01234EE701234CE707
:101E000001234AE7032348E7032346E702234AE77F
:101E10002DE9F04385B099460C9D90F85030012B88
:101E200000F0108104460F461646012380F850301A
:101E3000FFF786F8804694F85130DBB26268012BD8
:101E400015D0B2F5827F0AD00223012284F85120F6
:101E5000002284F85020184605B0BDE8F083A2683F
:101E6000002A40F0E780042B01D00223EDE7002F89
:101E700000F0E280002E00F0E180B9F1000F00F0E8
:101E8000DF8094F85130DBB2012B2BD00023636547
:101E9000A663A4F83E90A4F83C902763A4F836907B
:101EA000A4F834902364636423681A6812F0400F26
:101EB00003D11A6842F040021A60E368B3F5006F7C
:101EC00014D063681BB1E38E9BB2012B07D123684A
:101ED00017F8012B1A73E38E013B9BB2E3864FF098
:101EE000010961E0052384F85130CFE763681BB135
:101EF000E38E9BB2012B07D1236837F8022BDA60FF
:101F0000E38E013B9BB2E3864FF0010913E0E38FC0
:101F10009BB26BB123689A6812F0010F08D0DB689E
:101F200026F8023BE38F013B9BB2E3874FF00109A8
:101F3000B5F1FF3F1CD1E38E9BB21BB9E38F9BB27F
:101F4000002B55D0B9F1000FE1D0E38E9BB2002BEE
:101F5000DDD023689A6812F0020FD8D037F8022B30
:101F6000DA60E38E013B9BB2E3864FF00009CEE7D7
:101F7000FEF7E6FFA0EB0800A842DCD3032364E7EA
:101F8000E38F9BB26BB123689A6812F0010F08D0FF
:101F9000DB683370E38F013B9BB2E38701364FF080
:101FA0000109B5F1FF3F1BD1E38E9BB213B9E38F5B
:101FB0009BB2EBB1B9F1000FE2D0E38E9BB2002BE4
:101FC000DED023689A6812F0020FD9D03A781A73DB
:101FD000E38E013B9BB2E38601374FF00009CFE768
:101FE000FEF7AEFFA0EB0800A842DDD303232CE7E9
:101FF000CDF800802B46012202212046FFF796FDF6
:1020000008B1032321E7424629462046FFF7D9FDC0
:10201000034618B120236365012316E7A268002A4E
:102020007FF413AF03922268D16803919268039200
:10203000039A0AE7022308E7012306E7012304E7DE
:10204000012302E7022306E72DE9F04182B00446AE
:102050000D4617461E464368B3F5827F19D094F8A3
:102060005030012B00F0A280012384F85030FEF79D
:1020700067FF804694F85130DBB2012B15D0022067
:10208000012384F85130002384F8503002B0BDE8B9
:10209000F0818368002BE2D1042380F85130009650
:1020A00013460A46FFF7B4FEF0E7002D74D0002F68
:1020B00074D0042384F8513000236365A563A78797
:1020C000E7872363A386E38623646364A368B3F589
:1020D000004F0BD023681A6812F0400F03D11A6822
:1020E00042F040021A60E3685BB128E0226813689E
:1020F00023F480431360EDE7002E51D0B6F1FF3F8B
:1021000010D1E38F9BB2002B31D023689A6812F074
:10211000010FF1D01B7B05F8013BE38F013B9BB224
:10212000E387EEE7FEF70CFFA0EB0800B042E8D330
:102130000320A5E7002E35D0B6F1FF3F0FD1E38F86
:102140009BB2A3B123689A6812F0010FF2D0DB684A
:1021500025F8023BE38F013B9BB2E387EFE7FEF7F5
:10216000EFFEA0EB0800B042E9D3032088E76368E4
:10217000B3F5827F03D0636DB3B9002080E7A36815
:10218000B3F5004F02D0B3F5806FF4D12268136825
:1021900023F040031360EEE7012071E701206FE7B1
:1021A00003206DE703206BE7012069E702206DE75C
:1021B000002800F0BB8170B582B00446036813F0BC
:1021C000010F3BD0A74B9B6803F00C03042B2CD0D2
:1021D000A44B9B6803F00C03082B21D06368B3F574
:1021E000803F4FD0B3F5A02F52D09E4B1A6822F4F7
:1021F00080321A601A6822F480221A606368002B09
:1022000050D0FEF79DFE0546964B1B6813F4003F29
:1022100014D1FEF795FE401B6428F5D903208AE10E
:10222000904B5B6813F4800FD8D08E4B1B6813F46F
:10223000003F03D06368002B00F07A81236813F01D
:10224000020F55D0874B9B6813F00C0F3ED0854B87
:102250009B6803F00C03082B33D0E368002B68D095
:10226000814B01221A60FEF76BFE05467D4B1B6811
:1022700013F0020F54D1FEF763FE401B0228F5D97C
:10228000032058E1774A136843F480331360B5E7BD
:10229000744B1A6842F480221A601A6842F4803241
:1022A0001A60ABE7FEF74CFE05466E4B1B6813F455
:1022B000003FC3D0FEF744FE401B6428F5D903203D
:1022C00039E1684B5B6813F4800FC6D1654B1B681E
:1022D00013F0020F04D0E368012B01D001202AE1A2
:1022E000604A136823F0F803216943EAC1031360CD
:1022F000236813F0080F40D0636963B35B4B01227E
:102300001A60FEF71DFE0546564B5B6F13F0020F79
:1023100033D1FEF715FE401B0228F5D903200AE150
:10232000504A136823F0F803216943EAC10313609C
:10233000DEE74D4B00221A60FEF702FE0546494BD0
:102340001B6813F0020FD3D0FEF7FAFD401B0228E2
:10235000F5D90320EFE0454B00221A60FEF7F0FDAF
:102360000546404B5B6F13F0020F06D0FEF7E8FD09
:10237000401B0228F5D90320DDE0236813F0040F89
:1023800079D0384B1B6C13F0805F33D1002301935D
:10239000344B1A6C42F080521A641B6C03F0805369
:1023A0000193019B0125324B1B6813F4807F23D0DE
:1023B000A368012B34D0052B38D02A4B1A6F22F09A
:1023C00001021A671A6F22F004021A67A368002B31
:1023D00036D0FEF7B5FD0646224B1B6F13F0020FF9
:1023E00048D1FEF7ADFD801B41F288339842F3D906
:1023F0000320A0E00025D6E71D4A136843F480734C
:102400001360FEF79DFD0646194B1B6813F4807F91
:10241000CED1FEF795FD801B0228F5D903208AE076
:10242000104A136F43F001031367CFE70D4B1A6F88
:1024300042F004021A671A6F42F001021A67C5E7F8
:10244000FEF77EFD0646074B1B6F13F0020F11D0FF
:10245000FEF776FD801B41F288339842F3D90320C2
:1024600069E000BF0038024000004742800E47424A
:1024700000700040E5B9A369002B5BD0304A926838
:1024800002F00C02082A58D0022B17D02D4B002244
:102490001A60FEF755FD0446294B1B6813F0007FB8
:1024A00042D0FEF74DFD001B0228F5D9032042E083
:1024B000234A136C23F080531364DCE7214B002282
:1024C0001A60FEF73DFD05461D4B1B6813F0007FAB
:1024D00006D0FEF735FD401B0228F5D903202AE07F
:1024E000E369226A1343626A43EA8213A26A5208CA
:1024F000013A43EA0243E26A43EA0263104A536044
:10250000104B01221A60FEF71BFD04460C4B1B68A2
:1025100013F0007F06D1FEF713FD001B0228F5D94A
:10252000032008E0002006E0002004E001207047BE
:10253000012000E0002002B070BD0120FBE700BFD9
:102540000038024060004742264B9B6803F00C03B2
:10255000042B44D0082B01D0234870472DE9F04BC1
:10256000204B5A6802F03F025B6813F4800F13D0CF
:102570001C4B5968C1F3881100231C48A1FB0001C2
:10258000FEF712FB174B5B68C3F3014301335B009B
:10259000B0FBF3F0BDE8F08B124B5B68C3F388131C
:1025A0001E4600275C010025E41A65EB0705A9011A
:1025B00041EA9461A001001B61EB0501CB0043EAF5
:1025C0005073C400A01943EB07018B0243EA9053F8
:1025D0008402204619460023FEF7E6FAD2E70348B4
:1025E000704700BF003802400024F40040787D01AD
:1025F000002800F09D8070B504464F4B1B6803F027
:102600000F038B4209D2CBB24B4A1370136803F00D
:102610000F038B4201D0012070BD236813F0020F1D
:1026200017D013F0040F04D0444A936843F4E053E6
:102630009360236813F0080F04D0404A936843F472
:10264000604393603D4A936823F0F003A06803431E
:1026500093600D46236813F0010F32D06368012B9D
:1026600021D09A1E012A25D9344A126812F0020F8D
:1026700060D032498A6822F0030213438B60FEF770
:102680005FFC06462D4B9B6803F00C036268B3EBBE
:10269000820F16D0FEF754FC801B41F2883398421B
:1026A000F0D90320B8E7254A126812F4003FE0D1C0
:1026B0000120B1E7214A126812F0007FD9D1012030
:1026C000AAE71D4B1B6803F00F03AB4209D9EAB21E
:1026D000194B1A701B6803F00F03AB4201D00120A5
:1026E0009AE7236813F0040F06D0144A936823F482
:1026F000E053E1680B439360236813F0080F07D0A1
:102700000E4A936823F46043216943EAC10393604E
:10271000FFF71AFF094B9B68C3F30313084AD35C06
:10272000D840084B18600020FEF7BEFB002073E77E
:102730000120704701206FE7003C02400038024052
:10274000F084000808000020014B1868704700BFA3
:102750000800002008B5FFF7F7FF044B9B68C3F3A0
:102760008223034AD35CD84008BD00BF0038024032
:102770000085000808B5FFF7E7FF044B9B68C3F32B
:102780004233034AD35CD84008BD00BF0038024042
:102790000085000800B583B002A901F8010D0123EE
:1027A0001A46034800F000FB03B05DF804FB00BFCD
:1027B0001C03002008B5124B1B680021986803F029
:1027C000F7FE104801F0FBFA18210F4801F0F4FD64
:1027D00018210E4801F0F0FD01F0E0FE02F026FEA7
:1027E0000B4A00235371537093700A4A13800A4AAC
:1027F0001380882002F09CFA722002F099FA08BD3A
:1028000014000020A0030020DC0300205C03002053
:10281000140500200405002006050020FEE7000046
:1028200000B595B000220192284B196C41F08051FF
:1028300019641B6C03F080530193019B0292244B9B
:10284000196841F4804119601B6803F480430293C6
:10285000029B0223089301210B9110210C910E93EE
:102860000F92082210925022119212930423139374
:1028700008A8FFF79DFC08BB0F23039302210491D6
:10288000002305934FF480520692079303A8FFF7A5
:10289000AFFEB8B9FFF758FF0E4BA3FB003080091D
:1028A00000F0ECFE042000F0FFFE002211464FF085
:1028B000FF3000F0A3FE15B05DF804FBAA21064826
:1028C000FFF7ACFFB8210448FFF7A8FF003802402B
:1028D00000700040D34D62101485000808B5FEF763
:1028E00009FBFFF79DFFFEF7F1FF00F019F800F07C
:1028F00001FB01F083FD00F0C7FA00F0A3FC00F03B
:1029000025FC00F02DFBFEF74DFCFEF783FCFEF7E7
:10291000B9FCFFF74FFF02F05FFA02F069FBFAE73C
:1029200008B50B480B4B03604FF41653436000236C
:102930008360C36003610C2242618361C36100F064
:1029400004FA00B908BD42210348FFF767FFF9E721
:102950001C03002000480040208500080268124B3C
:102960009A4200D0704700B587B0002300930F4B08
:102970001A6C42F480221A641B6C03F480230093C7
:10298000009B4FF4406301930223029301230393BE
:10299000032304930723059301A90548FEF710FBC1
:1029A00007B05DF804FB00BF00480040003802405B
:1029B000000402402DE9F843044601680A6922F444
:1029C0004052C36813430B610168CA6822F416427F
:1029D00022F00C0283680069034360690343E069E5
:1029E00003431343CB6021684A6922F44072A36910
:1029F00013434B61E369B3F5004F60D02368B84AD5
:102A0000934200F0148102F58062934200F00F813E
:102A1000FFF7A0FE00EB800000EB80006568AD00D2
:102A2000B0FBF5F5AF4FA7FB05356D092E01FFF79C
:102A300091FE00EB800000EB80006568AD00B0FB0C
:102A4000F5F9FFF787FE00EB800000EB800065687A
:102A5000AD00B0FBF5F5A7FB05356D094FF0640837
:102A600008FB15952D013235A7FB05356D0905F0DD
:102A7000F0053544FFF76EFE00EB800000EB8000B0
:102A80006668B600B0FBF6F6FFF764FE00EB800068
:102A900000EB800063689B00B0FBF3F0A7FB003005
:102AA000400908FB10684FEA081808F13208A7FB34
:102AB0000837C7F3431723682F449F600DE123684D
:102AC000874A93425BD002F58062934257D0FFF76A
:102AD00041FE00EB800000EB800065686D00B0FBFC
:102AE000F5F5804FA7FB05356D092E01FFF732FE86
:102AF00000EB800000EB800065686D00B0FBF5F92D
:102B0000FFF728FE00EB800000EB800065686D0099
:102B1000B0FBF5F5A7FB05356D094FF0640808FB20
:102B20001595ED003235A7FB05356D096D0005F4EF
:102B3000F8753544FFF70EFE00EB800000EB8000D7
:102B400066687600B0FBF6F6FFF704FE00EB800047
:102B500000EB800063685B00B0FBF3F3A7FB03238B
:102B60005B0908FB13684FEAC80808F13208A7FBA5
:102B70000837C7F3421723682F449F60ADE0FFF783
:102B8000F9FD00EB800000EB800065686D00B0FB94
:102B9000F5F5544FA7FB05356D092E01FFF7EAFD4A
:102BA00000EB800000EB800065686D00B0FBF5F97C
:102BB000FFF7E0FD00EB800000EB800065686D0032
:102BC000B0FBF5F5A7FB05356D094FF0640808FB70
:102BD0001595ED003235A7FB05356D096D0005F43F
:102BE000F8753544FFF7C6FD00EB800000EB800070
:102BF00066687600B0FBF6F6FFF7BCFD00EB8000E0
:102C000000EB800063685B00B0FBF3F3A7FB0323DA
:102C10005B0908FB13684FEAC80808F13208A7FBF4
:102C20000837C7F3421723682F449F6055E0FFF72A
:102C3000A1FD00EB800000EB80006568AD00B0FBFB
:102C4000F5F5284FA7FB05356D092E01FFF792FD1D
:102C500000EB800000EB80006568AD00B0FBF5F98B
:102C6000FFF788FD00EB800000EB80006568AD0099
:102C7000B0FBF5F5A7FB05356D094FF0640808FBBF
:102C800015952D013235A7FB05356D0905F0F005C9
:102C90003544FFF76FFD00EB800000EB80006668B5
:102CA000B600B0FBF6F6FFF765FD00EB800000EB29
:102CB000800063689B00B0FBF3F0A7FB0030400985
:102CC00008FB10684FEA081808F13208A7FB08371C
:102CD000C7F3431723682F449F60BDE8F88300BF04
:102CE000001001401F85EB512DE9F04105460F46CC
:102CF00016469846069C2B681B6837EA03030CBFF0
:102D000001230023B3421DD1B4F1FF3FF3D02CB116
:102D1000FEF716F9A0EB0800A042ECD92A68D368A8
:102D200023F4D073D3602A68536923F001035361FD
:102D3000202385F8393085F83A30002385F838307B
:102D4000032000E00020BDE8F08158B310B5044630
:102D500090F839300BB3242384F839302268D368D3
:102D600023F40053D3602046FFF724FE2268136942
:102D700023F4904313612268536923F02A035361BB
:102D80002268D36843F40053D3600020E06320231B
:102D900084F8393084F83A3010BD80F83830FFF7C5
:102DA000DDFDD8E7012070472DE9F04182B01E46D5
:102DB00090F83930DBB2202B55D104460D469046B1
:102DC000002955D0002A55D090F83830012B53D027
:102DD000012380F838300023C363212380F8393081
:102DE000FEF7AEF80746A4F82480A4F8268010E089
:102DF00000963B46002280212046FFF775FF002801
:102E00003CD12B882268C3F3080353602369C3B9FC
:102E10000235E38C9BB2B3B1E38C013B9BB2E384FC
:102E2000A368B3F5805FE3D000963B460022802183
:102E30002046FFF759FF18BB2A7823685A600135EE
:102E4000E7E70135E5E700963B46002240212046B2
:102E5000FFF74AFF0346A8B9202284F83920002250
:102E600084F8382000E00223184602B0BDE8F08163
:102E70000123F9E70123F7E70223F5E70323F3E74B
:102E80000323F1E70323EFE700B58DB01648174B96
:102E900003600023436083604FF6FF72C2600361EA
:102EA00001220392049305920693079308930992D3
:102EB0000A930B9303A901F067F950B9002301931A
:102EC000029301A90848FEF7A9FC38B90DB05DF8D6
:102ED00004FBB7210648FFF7A1FCEFE7BE21044839
:102EE000FFF79CFCF2E700BFDC0300200004004079
:102EF0002C85000800B58DB01648174B03600023E1
:102F0000436083604FF6FF72C26003610122039247
:102F10000493059206930793089309920A930B93DF
:102F200003A901F031F950B900230193029301A9DB
:102F30000848FEF773FC38B90DB05DF804FBD821E2
:102F40000648FFF76BFCEFE7DF210448FFF766FC5C
:102F5000F2E700BF5C030020000800402C85000859
:102F600000B587B01848194B036013234360002352
:102F7000836040F2E732C260036101F0D3F898B990
:102F800006A94FF4805341F8103D0F4800F023FF8D
:102F900078B900230093019369460B48FEF73EFC85
:102FA00060B907B05DF804FBF0210948FFF736FC73
:102FB000E6E7F6210648FFF731FCEAE7FD21044881
:102FC000FFF72CFCEDE700BFA0030020000C004041
:102FD0002C85000882B00368104A934204D0B3F1F4
:102FE000804F0ED002B07047002300930C4B5A6CF8
:102FF00042F001025A645B6C03F001030093009BF2
:10300000F0E700230193064B1A6C42F001021A64A8
:103010001B6C03F001030193019BE3E700000140F7
:103020000038024000B589B003681D4A934205D0BC
:103030001C4A93421BD009B05DF804FB00230193A6
:1030400002F50D32116C41F002011164126C02F0B4
:1030500002020192019AC022039202220492059375
:103060000693079203A91048FDF7AAFFE3E70023A0
:10307000029302F50C32116C41F004011164126CE0
:1030800002F004020292029AC022039202220492E7
:1030900005930693079203A90448FDF791FFCAE739
:1030A000000400400008004000000240000402400C
:1030B00002680E4B9A4200D0704700B583B00021E1
:1030C000019103F50B331A6C42F008021A641B6C71
:1030D00003F008030193019B0A46322000F08EFAA8
:1030E000322000F0BFFA03B05DF804FB000C004092
:1030F00000B587B00368134A934205D0B3F1804FFF
:1031000011D007B05DF804FB4FF470630193022304
:1031100002930023039304930123059301A90A4812
:10312000FDF74EFFEDE720230193022302930023D6
:10313000039304930123059301A90348FDF740FF7E
:10314000DFE700BF000001400000024000B591B081
:1031500039483A4B0360012343600023836040F207
:103160001F32C2600361436100F0F5FF00283FD1C8
:1031700000230E930F930EA92F48FEF74FFB002854
:103180003BD1602307930022089209920A920B9286
:103190000C920D9207A9284801F074F8002831D14B
:1031A000042207A9244801F06DF800282FD1082235
:1031B00007A9214801F066F870BB0C2207A91E4838
:1031C00001F060F868BB002300930193029303931E
:1031D00004934FF400520592069369461648FEF791
:1031E00046FB18BB1448FFF783FF11B05DF804FBE2
:1031F0004A211348FFF712FBBAE751211048FFF7A5
:103200000DFBBEE75D210E48FFF708FBC8E7622112
:103210000B48FFF703FBCAE767210948FFF7FEFAEF
:10322000CBE76C210648FFF7F9FACCE77821044890
:10323000FFF7F4FAD6E700BF340400200000014095
:103240002C85000800B58BB01B484FF0804303600D
:10325000092343600023836040F2E732C2600361C8
:1032600000F079FFC0B900230893099308A9124818
:10327000FEF7D4FAA8B960230193002202920392C8
:10328000059201A90C4800F0FDFF78B90A48FFF744
:103290002FFF0BB05DF804FB8B210848FFF7BEFA47
:1032A000E1E792210548FFF7B9FAE4E79B210348DB
:1032B000FFF7B4FAEAE700BF700400202C8500088D
:1032C00010B50C461A4B4FF080421A60586000222D
:1032D0009A6040F2CF71D9601A615A61184600F0C5
:1032E0003AFF98B9134960230B604C6000228A6052
:1032F000CA600A614A618A610D4800F0C3FF58B98B
:1033000000210B4801F03CF860B910BD40F2FD11FE
:103310000948FFF783FAE5E740F209210648FFF77D
:103320007DFAEDE740F20D210348FFF777FAECE76D
:1033300070040020180400202C85000838B50C46C5
:10334000624B60221A6000229A60DA601A615A6148
:103350009A61B0F5487F05DA054610F5487F03DC31
:103360005B4D01E040F21F35B4F5487F04DA14F5F7
:10337000487F03DC564C01E040F21F34002D3BDB5C
:10338000524900224A60534800F07CFF002850D187
:103390004E494D6004224F4800F074FF00284ED182
:1033A000002C52DB494900234B600C22494800F0B5
:1033B00069FF002866D145494C600822454800F065
:1033C00061FF002864D10021424800F0D9FF0028A5
:1033D00064D104213F4800F0D3FF002864D10821C4
:1033E0003C4800F0CDFF002864D10C21394800F0A2
:1033F000C7FF002864D138BD6D4234494D600022BA
:10340000344800F03FFF70B9304900234B6004227C
:10341000304800F037FF0028C2D040F237212E4854
:10342000FFF7FCF9BCE740F232212B48FFF7F6F931
:10343000EAE740F23E212848FFF7F0F9A8E740F21A
:1034400043212548FFF7EAF9AAE764421F494C6087
:103450000C22204800F016FF70B91C4900234B6075
:1034600008221C4800F00EFF0028ACD040F2512189
:103470001948FFF7D3F9A6E74FF413711648FFF781
:10348000CDF9EAE74FF416711348FFF7C7F992E751
:1034900040F25D211048FFF7C1F994E740F2632143
:1034A0000D48FFF7BBF994E740F266210A48FFF7A1
:1034B000B5F994E740F269210748FFF7AFF994E7BF
:1034C0004FF41B710448FFF7A9F994E71804002092
:1034D000E1FCFFFF340400202C85000810B4354CBB
:1034E000626A12B2344B596A09B2002060625862B3
:1034F000324B1A604942596007EE902AF8EEE75ABB
:103500009FED2F5A65EE855AB1EE053AC5EE836AF6
:1035100076EEA66ADFED2B3A66EEA36A9FED2A4AA5
:1035200066EE846ADFED294AC6EEA47AC3ED047A1A
:1035300007EE901AB8EEE76A26EE056A86EE037A81
:1035400037EE077A27EE237A27EE047AC7EE247A3D
:10355000C3ED057A0A4407EE902AF8EEE77A67EEA3
:10356000857A87EE835A65EE237A67EE847A87EE52
:10357000A45A83ED065AD3ED077A77EEA66AC3ED17
:10358000076AD3ED087A37EE877A83ED087A9FEDE4
:10359000107A65EE875ADFED0F7A65EEA75AC3ED14
:1035A000025A26EE076A26EE276A83ED036A5DF863
:1035B000044B704700040040000800402C05002028
:1035C0000000803ADB0F4940CDCC44416F12833A72
:1035D00000007A4400007042074AD36823F4E06395
:1035E0001B041B0C000200F4E060184340F0BF60B5
:1035F00040F40030D060704700ED00E030B4174B6D
:10360000DB68C3F30223C3F10704042C28BF04249E
:103610001D1D062D18D9033B4FF0FF3505FA04F4A4
:1036200021EA0401994005FA03F322EA030319434E
:1036300000280BDB0901C9B200F1604000F56140D0
:1036400080F8001330BC70470023E5E700F00F005E
:103650000901C9B2024B1954F4E700BF00ED00E0C4
:1036600014ED00E000F01F02400901239340024ADC
:1036700042F82030704700BF00E100E00138B0F1AF
:10368000807F0AD2064B5860064AF02182F8231048
:103690000020986007221A6070470120704700BF21
:1036A00010E000E000ED00E0042805D0054A1368B2
:1036B00023F0040313607047024A136843F00403C5
:1036C0001360704710E000E0704708B5FFF7FCFF9B
:1036D00008BD0000494B5A6822F440325A605A68CB
:1036E00041680A435A600268536823F48073536048
:1036F00002685368016943EA012353600268536812
:1037000023F0407353600268536881680B43536031
:103710000268936823F40063936002689368C16849
:103720000B439360826A364B9A4249D00268936891
:1037300023F07063936002689368816A0B4393601F
:103740000268936823F04053936002689368C16AEB
:103750000B4393600268936823F00203936002684E
:103760009368816943EA41039360036A002B32D175
:103770000268536823F4006353600268D36A23F439
:103780007003D3620168CB6AC269013A43EA02530B
:10379000CB620268936823F40073936002689368B5
:1037A000016B43EA412393600268936823F48063CA
:1037B000936002689368416943EA8123936070478C
:1037C0000268936823F0706393600268936823F043
:1037D00040539360BEE70268536843F4006353604C
:1037E0000268536823F46043536001684B68426A7F
:1037F000013A43EA42334B60BFE700BF0023014078
:103800000100000F30B310B50446036C43B1236CC4
:1038100013F0100F0AD00120002384F83C3010BDB3
:10382000436480F83C30FDF765FDF0E7236C23F43A
:10383000885323F0020343F0020323642046FFF77A
:1038400049FF00206064236C23F0030343F001036D
:103850002364E1E70120704782B00023019390F8D0
:103860003C30012B63D0012380F83C3003689A6818
:1038700012F0010F13D19A6842F001029A60304BA6
:103880001B68304AA2FB03239B0C03EB4303019309
:1038900002E0019B013B0193019B002BF9D10268DF
:1038A000936813F0010F44D0036C23F4E06323F01A
:1038B000010343F480730364536813F4806F05D0ED
:1038C000036C23F4405343F480530364036C13F4F8
:1038D000805F19D0436C23F006034364002380F813
:1038E0003C306FF022031360174B5B6813F01F0F1F
:1038F0000DD103689A6812F0405F1DD19A6842F0BA
:1039000080429A60002015E000234364E6E70368E4
:103910000E4A934201D000200CE09A6812F0405FFA
:103920000CD19A6842F080429A60002002E00220A6
:1039300000E0002002B070470020FBE70020F9E71C
:103940000800002083DE1B430023014000200140CB
:1039500090F83C30012B19D0012380F83C300268EC
:10396000936823F00103936003689B6813F0010FD1
:1039700007D1036C23F4885323F0010343F00103C0
:103980000364002380F83C301846704702207047DB
:1039900003689A6812F4806F03D09B6813F4807FE9
:1039A0001CD170B50D460446FDF7CAFA06462368D9
:1039B0001A6812F0020F1AD1B5F1FF3FF7D025B106
:1039C000FDF7BEFA801BA842F1D9236C43F0040333
:1039D0002364002384F83C3003202DE0036C43F083
:1039E00020030364002380F83C30012070476FF00F
:1039F00012021A60236C43F40073236423689A68EC
:103A000012F0405F17D1A269BAB9DA6A12F4700FE6
:103A100003D09B6813F4806F11D1236C23F480735F
:103A20002364236C13F4805F0BD1236C43F00103F8
:103A30002364002000E0002070BD0020FCE700208F
:103A4000FAE70020F8E70368D86C704730B482B01A
:103A50000023019390F83C30012B00F0B780012344
:103A600080F83C300B68092B3ED90568EA689BB2A8
:103A700003EB43031E3B072404FA03F322EA030388
:103A8000EB600568EA688C680B8803EB43031E3B18
:103A900004FA03F31343EB604B68062B3AD805682E
:103AA0006A6B03EB8303053B1F2404FA03F322EA4A
:103AB00003036B6305686A6B4B6803EB8303053B89
:103AC0000C8804FA03F313436B630268404B9A4279
:103AD00050D002683E4B9A4255D0002380F83C30CB
:103AE000184602B030BC704705682A699BB203EBE8
:103AF0004303072404FA03F322EA03032B61056856
:103B00002A698C680B8803EB430304FA03F313431D
:103B10002B61C1E70C2B16D805682A6B03EB8303D6
:103B2000233B1F2404FA03F322EA03032B630568F3
:103B30002A6B4B6803EB8303233B0C8804FA03F3E3
:103B400013432B63C1E70568EA6A03EB8303413B38
:103B50001F2404FA03F322EA0303EB620568EA6A0E
:103B60004B6803EB8303413B0C8804FA03F31343D4
:103B7000EB62AAE70B68122BABD1164A536843F4E9
:103B800080035360A5E70B68103B012BA5D8114AB1
:103B9000536843F4000353600B68102B9DD10E4B08
:103BA0001B6802F1467202F52E3202F28332A2FB4A
:103BB00003239B0C03EB83035A00019202E0019B59
:103BC000013B0193019B002BF9D186E7022088E796
:103BD00000200140002301400800002008B5032018
:103BE000FFF7FAFC002211466FF00B00FFF706FD0D
:103BF000002211466FF00A00FFF700FD0022114677
:103C00006FF00900FFF7FAFC002211466FF0040084
:103C1000FFF7F4FC002211466FF00300FFF7EEFC03
:103C2000002211466FF00100FFF7E8FC0022114668
:103C30004FF0FF30FFF7E2FC08BD000070B4036AEC
:103C400023F001030362036A4268846924F0730469
:103C50000D6845EA040623F002048B6823430C4DEB
:103C6000A84202D00B4CA0420BD123F00803CD6830
:103C70002B4323F0040322F440724D6915438A69F3
:103C80002A43426086614A684263036270BC70479F
:103C9000000001400004014030B4036A23F4807343
:103CA0000362036A4268C46924F073040D682C43FC
:103CB00023F400738D6843EA05230E4DA84203D018
:103CC00005F58065A8420ED123F40063CD6843EA70
:103CD000052323F4806322F440524D6942EA051221
:103CE0008D6942EA05124260C4614A68C263036298
:103CF00030BC70470000014030B4036A23F48053A5
:103D00000362036A4468C26922F4E6420D6842EA2B
:103D1000052223F400538D6843EA0533094DA84278
:103D200003D005F58065A84204D124F480444D6990
:103D300044EA85144460C2614A680264036230BC8C
:103D4000704700BF0000014010B4036A046A24F009
:103D500001040462846924F0F00444EA021223F0AE
:103D60000A030B43826103625DF8044B704710B491
:103D7000036A23F0100303628469036A24F4704425
:103D800044EA023223F0A00343EA01138261036292
:103D90005DF8044B7047836823F0700341F007011E
:103DA00019438160704710B4846824F47F4442EA68
:103DB00003230B43234383605DF8044B7047026881
:103DC000D36843F00103D3600268136843F0010332
:103DD00013600020704790F83830012B7DD010B56B
:103DE0000446012380F83830022380F83930026815
:103DF000936823F47F4323F0770393600B68402B91
:103E000057D010D9702B3ED01FD8502B47D0602BE5
:103E100032D1CA6849680068FFF7A9FF60212068AD
:103E2000FFF7B9FF28E0102B4DD008D9202B4FD039
:103E3000302B21D130210068FFF7ADFF1CE0DBB94A
:103E400000210068FFF7A7FF16E0B3F5805F0ED0F2
:103E5000B3F5005F10D1CB684A6889680068FFF746
:103E6000A2FF2268936843F48043936004E00268F1
:103E7000936823F007039360012384F8393000200E
:103E800084F8380010BDCB684A6889680068FFF77D
:103E90008AFF2268936843F077039360ECE7CA686F
:103EA00049680068FFF750FF50212068FFF773FF53
:103EB000E2E7CA6849680068FFF746FF40212068CA
:103EC000FFF769FFD8E710210068FFF764FFD3E729
:103ED00020210068FFF75FFFCEE7022070477047A0
:103EE000704770477047704710B5044603681A69F9
:103EF00012F0020F11D0DA6812F0020F0DD06FF03D
:103F000002021A610123037603689B6913F0030F11
:103F100070D0FFF7E6FF0023237623681A6912F0BA
:103F2000040F12D0DA6812F0040F0ED06FF0040202
:103F30001A610223237623689B6913F4407F5FD0C4
:103F40002046FFF7CEFF0023237623681A6912F07C
:103F5000080F12D0DA6812F0080F0ED06FF00802C6
:103F60001A61042323762368DB6913F0030F4ED014
:103F70002046FFF7B6FF0023237623681A6912F064
:103F8000100F12D0DA6812F0100F0ED06FF010027E
:103F90001A61082323762368DB6913F4407F3DD040
:103FA0002046FFF79EFF0023237623681A6912F04C
:103FB000010F03D0DA6812F0010F36D123681A69B5
:103FC00012F0800F03D0DA6812F0800F34D123682A
:103FD0001A6912F0400F03D0DA6812F0400F32D1A4
:103FE00023681A6912F0200F03D0DA6812F0200F4C
:103FF00030D110BDFFF774FF2046FFF773FF8AE74B
:104000002046FFF76DFF2046FFF76CFF9BE7204639
:10401000FFF766FF2046FFF765FFACE72046FFF796
:104020005FFF2046FFF75EFFBDE76FF001021A61F8
:104030002046FFF754FFC1E76FF080021A61204667
:10404000FDF742FCC3E76FF040021A612046FFF71C
:104050004AFFC5E76FF020021A612046FDF733FCE6
:10406000C7E7000003682E4A904212D0B0F1804F9B
:104070000FD0A2F57C4290420BD002F580629042B4
:1040800007D002F58062904203D002F57842904258
:1040900003D123F070034A681343214A90422AD087
:1040A000B0F1804F27D0A2F57C42904223D002F598
:1040B000806290421FD002F5806290421BD002F5D0
:1040C0007842904217D002F57052904213D002F518
:1040D000806290420FD002F5806290420BD0A2F530
:1040E0009832904207D002F58062904203D002F5E8
:1040F0008062904203D123F44073CA681343036083
:104100008B68C3620B688362054B984203D003F54A
:104110008063984201D10B690363012343617047B7
:1041200000000140A8B110B5044690F839305BB1E9
:10413000022384F83930211D2068FFF793FF012303
:1041400084F83930002010BD80F83830FEF7B0FF19
:10415000EEE701207047A8B110B5044690F8393059
:104160005BB1022384F83930211D2068FFF77AFF04
:10417000012384F83930002010BD80F83830FEF774
:1041800029FFEEE701207047002847D0F8B5054623
:104190000C4690F83930002B3BD0022385F839309B
:1041A000294651F8042B936823F00703936028688D
:1041B000FFF758FF29688A688E690F6A20681043E4
:1041C00026F4407626F00306A268A36942EA032398
:1041D000334323F47C4323F0FC03E668E26946EAB8
:1041E00002261E43226A1303226943EA0213334361
:1041F00027F0AA076268646942EA04123A438860B9
:1042000029688B612B681A62012385F839300020F8
:10421000F8BD80F83830FEF705FFBEE70120704793
:1042200030B4036A23F010030362036A44688269AE
:1042300022F4E6420D6842EA052223F020038D684D
:1042400043EA05130E4DA84203D005F58065A84248
:104250000ED123F08003CD6843EA051323F0400319
:1042600024F440644D6944EA85048D6944EA850478
:10427000446082614A688263036230BC704700BF59
:104280000000014038B590F83830012B66D00D465B
:104290000446012380F83830022380F839300C2A94
:1042A0001AD8DFE802F00719191920191919341959
:1042B000191947000068FFF7C1FC2268936943F0B1
:1042C000080393612268936923F0040393612268D1
:1042D000936929690B439361012384F839300020E5
:1042E00084F8380038BD0068FFF79AFF22689369A8
:1042F00043F4006393612268936923F480639361BC
:1043000022689369296943EA01239361E4E700681D
:10431000FFF7C2FC2268D36943F00803D361226827
:10432000D36923F00403D3612268D36929690B435D
:10433000D361D1E70068FFF7DFFC2268D36943F45B
:104340000063D3612268D36923F48063D361226858
:10435000D369296943EA0123D361BDE70220C1E79C
:1043600010B4012303FA01F4036A23EA040303628D
:10437000036A8A40134303625DF8044B70470000F0
:1043800010B5044601220068FFF7EAFF2368094AD6
:10439000934203D002F58062934203D15A6C42F4F7
:1043A00000425A642268136843F00103136000203E
:1043B00010BD00BF0000014010B5044661B10429E2
:1043C00016D0012200210068FFF7CAFF0122042154
:1043D0002068FFF7C5FF04E0012200210068FFF715
:1043E000BFFF2268136843F001031360002010BD73
:1043F000012204210068FFF7B3FFF2E708B50E4879
:104400000E4B03604FF48273436000238360C360EC
:10441000036143614FF400728261C36103624362CE
:1044200083620A23C362FDF7E0FB00B908BD4621A1
:104430000348FEF7F3F9F9E7AC0400200038004028
:10444000388500080268124B9A4200D0704700B5C8
:1044500087B00021009103F500331A6C42F48042CA
:104460001A641B6C03F480430093009B4FF4604379
:1044700001930223029303910323049305230593DD
:1044800001A90448FCF79CFD07B05DF804FB00BFE0
:10449000003800400004024030B583B00446114D9E
:1044A00000224FF480512846FCF775FE64F07F042B
:1044B00002A901F8014D0C4C642301222046FDF7AE
:1044C000D4FB642301220DF106012046FDF7BCFD5B
:1044D00001224FF480512846FCF75DFE9DF806004E
:1044E00003B030BD00040240AC04002030B583B0FE
:1044F0000446134D00224FF480512846FCF74BFE32
:1045000064F07F0402A901F8014D0E4C64230122DE
:104510002046FDF7AAFB642301220DF10601204687
:10452000FDF792FD9DF80640240224B201224FF4CB
:1045300080512846FCF72FFE204603B030BD00BF57
:1045400000040240AC04002070B584B08DF8071060
:1045500000F07F0004AC04F8010D0E4D00224FF472
:1045600080512846FCF717FE0B4E6423012221469A
:104570003046FDF77AFB642301220DF10701304636
:10458000FDF773FB01224FF480512846FCF703FE30
:1045900004B070BD00040240AC04002008B5002047
:1045A00002E07520FFF778FF7028FAD1014608482D
:1045B00001F0D2FF00216B20FFF7C6FF00211A2077
:1045C000FFF7C2FF18211B20FFF7BEFF08BD00BF89
:1045D0004485000810B54720FFF788FF04464820AF
:1045E000FFF75AFF00B2204300B2024B5C68001B89
:1045F00000B210BD70050020044B00225A601A80E2
:1046000003490A700022DA609A6070477005002042
:104610001405002010B54720FFF768FF0446482026
:10462000FFF73AFF00B204430E4BB3F9003040F2FB
:10463000FE3293420DDD0B494B680B4A82FB0302AD
:104640001A44DB17C3EB62234B60084B01221A703C
:1046500010BD24B2034A51680C44546001331380E6
:10466000F6E700BF70050020030820801405002035
:1046700008B5012802D0FFF7CDFF08BDFFF7AAFF5C
:1046800007EE900AF8EEE76A9FED087AC6EE877AA1
:10469000074BC3ED047A9FED077A67EE877A93EDB7
:1046A000037A77EE277AC3ED037AE6E73333834163
:1046B000700500206F12833A70B50D46164600242F
:1046C00004E0AFF30080287001340135B442F8DB18
:1046D000304670BD70B51646002405E04D1C0878C4
:1046E000FEF758F801342946B442F7DB304670BD76
:1046F00008B503460B4A126842B10A4A10680344DF
:104700006A46934206D8074A136008BD054A06491F
:104710001160F2E701F086FA0C2303604FF0FF30DE
:10472000F3E700BF0002002030F700204FF0FF3019
:1047300070474FF400534B600020704701207047D2
:104740000020704770EE600A20EE811ADFED0C7ACF
:1047500060EEA77A90ED000A77EE807AC0ED007ADD
:1047600067EEA11A91ED007A30EEC77A27EE022AA1
:10477000C1ED000A71EE211A31EE820A704700BFC6
:104780006F12833A13880133138007EE900AF8EE14
:10479000E77A9FED097A27EE877AB1F9003007EEC4
:1047A000903AF8EEE77A77EE877AFDEEE77A17EE41
:1047B000903A0B80704700BF6F12833A10B4354BAC
:1047C0009980354C00236362A362344C2360344BE0
:1047D0000024DC70002857DB324B01241C70C1F52B
:1047E000967307EE903AF8EEE77A9FED2F7A87EE10
:1047F000876AC2F5967207EE902AF8EEE77AC7EE5E
:10480000876A07EE900AB8EEE77A01F5967107EE2F
:10481000901AF8EEE77A67EE865AB6EE005A65EE21
:10482000855A37EE657A67EEA67A67EE857A77EE77
:10483000677ADFED1E5A87EEA57ADFED1D5A26EE68
:10484000256A67EE257A66EEA56ABCEEC66A194B44
:1048500016EE102A1A80FCEEE77A174B17EE902A14
:104860001A80FCEEE66A154B16EE902A1A80144B5D
:104870004FF081421A60134B134A1A60134B002207
:104880001A605DF8044B7047404200B2054BFF24AC
:104890001C70A4E75C0500202C050020F802002015
:1048A000140500200003002000007A450000964314
:1048B00000007A44100500200C0500202A05002085
:1048C0000C02002008020020000020410402002009
:1048D000064B0122DA70064B4FF081421A60054BFD
:1048E000054A1A60054B00221A6070471405002023
:1048F0000C020020080200200000204104020020D9
:10490000F8B52DED048B474BDB78DBB2012B23D0C0
:10491000454B1A88454B1B889A4260D34449088806
:10492000C1188A4267DB4349098801440B449A4213
:104930006CDB414BD3ED048A93ED059A3F4A00218D
:104940009180D3ED067AF5EE407AF1EE10FA0BD1B4
:10495000344B5970997007E0374BD3ED068A374BCB
:1049600000229A80B0EE689A344BB3F90430344A8E
:1049700092F9002003FB02F307EE903AB8EEE78AC3
:10498000304F314E314D324C97ED002AD6ED001AA2
:1049900095ED001A21462F48F0EE680AB0EE480A5D
:1049A000FFF7D0FEBDEEC00A2B4B10EE102A1A8086
:1049B00097ED002AD6ED001A95ED001A211D274823
:1049C000F0EE490AB0EE480AFFF7BCFEBDEEC00AA1
:1049D000234B10EE102A1A80BDEC048BF8BD164B49
:1049E000D3ED048A93ED059A0F4A1E494FF47A607D
:1049F000FFF7C8FEB8E7104BD3ED048A93ED059A94
:104A0000094A18490020FFF7BDFEADE70A4BD3ED78
:104A1000048A93ED059A044A12491348FFF7B2FE3F
:104A2000A2E700BF140500200405002010050020A7
:104A30000C0500202A0500202C0500205C05002024
:104A40000003002004020020080200200C020020C5
:104A500050050020F8020020FC0200201003002076
:104A6000080300206005002060F0FFFF10B42D4B0C
:104A7000998100232C4C23602C4CA3602C4B0024E8
:104A80001C71C1F5BE7307EE903AF8EEE77A9FED20
:104A9000297A87EE876AC2F5BE7307EE903AF8EE80
:104AA000E77AC7EE876A07EE900AB8EEE77A01F573
:104AB000BE7307EE903AF8EEE77A67EE867AF6EE86
:104AC000005A67EEA57A77EE677A02F5BE7307EEB5
:104AD000103AB8EEC77A27EE267A27EE257A37EE17
:104AE000C77ADFED155AC7EE257A9FED147A26EEC8
:104AF000076A67EE877A66EE876ABCEEC66A104B75
:104B000016EE102A1A80FCEEE77A0E4B17EE902A6A
:104B10001A80FCEEE66A0C4B16EE902A1A805DF8BD
:104B2000044B70475C0500200C030020700500203A
:104B3000140500200000FA440000BE4300007A443F
:104B40000E0500205805002022F00020014B012214
:104B50001A7170471405002008B52B4B1B79DBB286
:104B6000012B17D0294B1A88294B1B889A4238D31E
:104B700028490888C1188A423ADB27490988014434
:104B80000B449A423ADB0023244A93811E4A9370D5
:104B9000537002E0214B00229A811B4B1B891BB2F0
:104BA00007EE903AF8EEE77A1C4BB3F90C3000EEC2
:104BB000103A1B4BB8EEC00AB1EE002AF2EE021A10
:104BC0009FED181A19461848D3ED020A20EE270A5D
:104BD000FFF7B8FDBDEEC00A144B10EE102A1A8084
:104BE00008BD0A4A12494FF4FA60FFF7CBFDD4E73B
:104BF000064A0F490020FFF7C5FDCEE7034A0C49DE
:104C00000C48FFF7BFFDC8E714050020060500208B
:104C10000E0500205805002022F000205C05002031
:104C2000780500201F856B3F0C030020180300202F
:104C30006805002030F8FFFF1D498B8AA3F6622229
:104C40004B8AC3F52E6305339BB213FA82F31BB272
:104C50000A7F012A10D0174B00221A80164B93EDC1
:104C6000067ADFED167AB4EEE77AF1EE10FA02D5A5
:104C7000104B00221A807047CA7E012AEBD1B1F98D
:104C80002C2012F1130FE9DBB1F92E2012F1130FD2
:104C9000E4DB07EE903AF8EEE77A9FED097A67EEEB
:104CA000877AFDEEE77A034B17EE902A1A80D5E754
:104CB000E8EF0020FE0200202C05002000007A43CF
:104CC000CDCC4C3E08B5154BDB7ADBB2012B0ED0B8
:104CD00000210846114B5B78DBB2012B0ED00F4B45
:104CE0009B78DBB2012B12D0FEF728FB08BD0C4BE2
:104CF000B3F9000081B2494209B2EBE7094B1B88C6
:104D0000184400B2084B1B88194409B2E7E7074B67
:104D10001B88C01A00B2194409B2E5E71405002047
:104D2000FE020020FC0200200803002018030020DF
:104D300008B54FF49671FEF7C3FA6420FCF706F944
:104D400000210A20FEF7BCFA08BD000010B5204B78
:104D5000DB7E012B20D001224FF400511D48FCF7CF
:104D60001AFA1B4B1B7F012B1DD001224FF48041EF
:104D70001848FCF710FA164BDB7F012B1AD0154CA4
:104D800001224FF480712046FCF705FA01228021B0
:104D90002046FCF700FA10BD00224FF400510D48E8
:104DA000FCF7F9F9DDE700224FF480410948FCF7F0
:104DB000F2F9E0E7074C00224FF480712046FCF73F
:104DC000EAF9002280212046FCF7E5F9E3E700BF7D
:104DD000E8EF00200008024010B500241FE013F1A6
:104DE0001E0F2DDA013C64B22AE000241C4B002285
:104DF000DA61C4EB4413C4EB83035800C0B25638E5
:104E000000F0FE00FFF794FFFCF7C2FD01281DD063
:104E1000E0B2FCF7EBFD2146124801F09DFB104B80
:104E2000D3ED077AFDEEE77A17EE903A1BB203F165
:104E30001E0292B23C2AE7D91E2BD0DD013464B2A7
:104E4000062CD2DC002CD1DA0624CFE74C20FFF769
:104E50006FFF4FF4FA70FCF779F8204610BD00BFE1
:104E60002C0500205485000870B52F4B01225A7183
:104E700000F032FB2D4BDB7F012BFBD14C20FFF7E9
:104E800057FF294D00266E71FFF7B6FB4FF4FA600D
:104E9000FCF75CF801246C71AC7200F073F9244BE0
:104EA0001E705C7013E0214BDB7F1BB91E4B002290
:104EB0001A7313E01D4BDB7E1BB91B4BFF221A73C9
:104EC0000CE0194B02221A7308E000F093F9174B1B
:104ED0001B7F002BE7D1144B01221A73124C207B4D
:104EE00040B200F05FFC002000F070FEC820FCF72C
:104EF0002DF8237B5BB20133032BE8D801A252F8D3
:104F000023F000BF1B4F0008154F0008CB4E0008D0
:104F1000214F000800F05AF9D9E700F09FF9D6E7D1
:104F200000F0D0F9D3E700BF14050020E8EF00201F
:104F300024050020F8B500F0D7FA294B01225A7158
:104F4000284BDE7F012EFBD14C20FFF7F1FEFFF74F
:104F500053FB4FF4FA60FBF7F9FF00F013F9224B13
:104F600000271F7001225A709F7000F0B5FA002FC1
:104F700033D11D4D95F9011095F9000000F09EFB0D
:104F800000F0EAFAC820FBF7E1FF00F0C5FC044698
:104F900000F008FC2A78154B1B789A4207D0601C59
:104FA0000428E4D8DFE800F0100D0A1316006A7830
:104FB0000E4B5B789A42F2D13746F0E700F01AF9CF
:104FC000D5E700F003F9D2E700F048F9CFE700F0A9
:104FD00079F9CCE700F0AAF9C9E700F0EBF9F8BDE0
:104FE00014050020E8EF00202405002028F7002009
:104FF00008B5062807D8DFE800F0040709141F37B2
:105000004200FFF797FF08BDFFF72EFF00F050FAB0
:10501000FFF7F2FA4FF4FA60FBF798FF00F0EAF8B6
:10502000F1E700F045FAFFF7E7FA4FF4FA60FBF713
:105030008DFF00F013F9E6E700F03AFAFFF7DCFA2B
:105040004FF47A60FBF782FF0E4B01225A710E4B30
:10505000DB7F2BB90B4B00225A7300F033F9D2E7F8
:10506000084B01225A73F8E700F022FAFFF7C4FA5E
:105070004FF4FA60FBF76AFF00F058F9C3E700F05D
:10508000ADF9C0E714050020E8EF002008B50022C4
:1050900011468820FFF792FBFFF758FD034B0122D2
:1050A0005A709A700022DA7208BD00BF1405002001
:1050B00008B500221146B420FFF780FBFFF746FD3C
:1050C000024B01225A709A70DA7208BD1405002052
:1050D00008B5002211465A20FFF770FBFFF736FD96
:1050E000024B01225A709A70DA7208BD1405002032
:1050F00038B5074C0125258100221146B420FFF761
:10510000B5FCFFF7E5FB0023E372A570657038BDC1
:105110001405002038B5074C0125258100221146D1
:105120005A20FFF7A3FCFFF7D3FB0023E372A5701F
:10513000657038BD1405002010B5084C4FF6FF739C
:105140002381002211465A20FFF790FCFFF7C0FB95
:105150000023E3720123A370637010BD14050020C7
:1051600008B5002211466FF03600FFF727FBFFF766
:10517000EDFC034B0022DA7201225A709A7008BDCE
:105180001405002008B5FFF7EBFF0F4B9B79DBB24E
:10519000012BFAD00C4B5B78DBB2012BF5D04FF42E
:1051A000FA70FBF7D3FEFFF771FF074B9B79DBB279
:1051B000012BFAD0044B5B78DBB2012BF5D04C20ED
:1051C000FFF7B6FD08BD00BF1405002008B5FFF7C6
:1051D0006FFF074B9B79DBB2012BFAD0044B5B7856
:1051E000DBB2012BF5D04C20FFF7A2FD08BD00BFBC
:1051F0001405002008B5FFF76BFF174B9B79DBB256
:10520000012BFAD0144B5B78DBB2012BF5D04FF4B5
:10521000FA70FBF79BFEFFF77DFF0F4B9B79DBB22C
:10522000012BFAD00C4B5B78DBB2012BF5D04FF49D
:10523000FA70FBF78BFEFFF74BFF074B9B79DBB256
:10524000012BFAD0044B5B78DBB2012BF5D04C205C
:10525000FFF76EFD08BD00BF1405002008B5FFF77D
:1052600037FF174B9B79DBB2012BFAD0144B5B78DD
:10527000DBB2012BF5D04FF4FA70FBF767FEFFF7B6
:105280005BFF0F4B9B79DBB2012BFAD00C4B5B78A9
:10529000DBB2012BF5D04FF4FA70FBF757FEFFF7A6
:1052A00017FF074B9B79DBB2012BFAD0044B5B78DD
:1052B000DBB2012BF5D04C20FFF73AFD08BD00BF53
:1052C0001405002008B5FFF703FF174B9B79DBB2ED
:1052D000012BFAD0144B5B78DBB2012BF5D04FF4E5
:1052E000FA70FBF733FEFFF703FF0F4B9B79DBB23E
:1052F000012BFAD00C4B5B78DBB2012BF5D04FF4CD
:10530000FA70FBF723FEFFF7E3FE074B9B79DBB256
:10531000012BFAD0044B5B78DBB2012BF5D04C208B
:10532000FFF706FD08BD00BF1405002008B5FFF714
:10533000CFFE1F4B9B79DBB2012BFAD01C4B5B7865
:10534000DBB2012BF5D04FF4FA70FBF7FFFDFFF74E
:10535000CFFE174B9B79DBB2012BFAD0144B5B7855
:10536000DBB2012BF5D04FF4FA70FBF7EFFDFFF73E
:10537000F7FE0F4B9B79DBB2012BFAD00C4B5B781D
:10538000DBB2012BF5D04FF4FA70FBF7DFFDFFF72E
:105390007DFE074B9B79DBB2012BFAD0044B5B7887
:1053A000DBB2012BF5D04C20FFF7C2FC08BD00BFDB
:1053B0001405002008B5FFF769FE074B9B79DBB2A7
:1053C000012BFAD0044B5B78DBB2012BF5D04C20DB
:1053D000FFF7AEFC08BD00BF1405002010B5104B50
:1053E00001225A7111E004F108020E4B33F8121039
:1053F0000D4801F0B1F80134032CF4DD0D2001F06B
:10540000C3F8FCF7C5FA012803D0FFF79FFC00247E
:10541000F2E75B20FFF78CFC014B00225A7110BDB4
:1054200014050020E8EF00206485000808B500237B
:105430009FED177A08E0174A128807EE902AF8EED7
:10544000E77A37EE277A0133092BF4DDF2EE047A9E
:10545000C7EE276ADFED107A86EEA77ADFED0F7AC6
:1054600027EE277ADFED0E6AC7EE267A9FED0D7ADA
:1054700067EE877A0C4BC3ED007A17EE900AFBF7C4
:1054800063F802460B46094801F066F808BD00BF04
:10549000000000002805002000F07F4500000543C3
:1054A00000000442333353400805002058850008AB
:1054B00008B5074B01225A71064BDB7F012BFBD14C
:1054C0004C20FFF735FC024B00225A7108BD00BF8B
:1054D00014050020E8EF0020024B07221A705A70D2
:1054E000704700BF28F70020002014E0194B03EBA1
:1054F00000130B44002283F8002383F8002283F872
:10550000002483F8002583F8002683F80021013168
:105510000F29EBDD01300F2801DC0021F8E70D4BEE
:10552000012283F8002383F8102500230FE0094AA5
:10553000D018012180F8F01380F8001503F1400025
:105540000001115402EB031282F80F120B440F2BCF
:10555000EDDD704724F0002070B483B0002116E028
:10556000544A02EB0112FE20D05401330F2B0DDC04
:10557000514A12788A42F3D14F4A52789A42EFD177
:105580004C4A02EB01120020D054EEE701310F2902
:1055900001DC0023EAE701238DF80730002579E0DC
:1055A0006E1C444A02EB0412D65401228DF80720E7
:1055B00039E06BB13F4A02EB00120A4492F8002432
:1055C00032B94A1E3B4E06EB0016B25CAA4244D0EA
:1055D0006CB1384A02EB00120A4492F8002532B945
:1055E000421E344E06EB0212525CAA423ED00133F8
:1055F000DBB20F2B43D8204619462E4A02EB041289
:10560000D25CFE2AF3D10E2B0DD82A4A02EB0412EB
:105610001A4492F8002232B95A1C264E06EB0416A0
:10562000B25CAA42BCD00E2CC3D8224A02EB0012B4
:105630000A4492F80023002ABBD1421C1D4E06EBFF
:105640000212525CAA42B4D16E1C1A4A02EB00123A
:10565000565401228DF80720ABE76E1C154A02EB69
:105660000012565401228DF80720B1E76E1C114A32
:1056700002EB0010465401228DF80720B7E70134F1
:10568000E4B20F2C01D80023B3E79DF80730DBB25A
:10569000012B08D09DF80730DBB2012B06D1002486
:1056A0008DF80740EDE70135EDB2F3E703B070BCCC
:1056B000704700BF24F0002028F70020F0B4354BDD
:1056C000DA7F8AB9344B00245C73344B03EB00134C
:1056D0000B44012483F80046314B9B78032B53D8AD
:1056E000DFE803F00641464C2B4B01245C73ECE7EA
:1056F0001746284BDA7E1C7F0025FFB2274B03EBB1
:1057000000130B4483F80072D6B283F80063EDB245
:1057100083F80054E4B283F800450D2906DC4B1CE5
:105720001E4A02EB0012134483F800740D2806DCB5
:10573000431C1A4A02EB03130B4483F8006500294B
:1057400006DD4B1E154A02EB0012134483F800528B
:10575000002806DD0138114B03EB0010014481F8ED
:105760000043F0BC70470B4BDD7E1F7F0024C4E775
:105770001546084BDC7E1A7F0027BEE71446054B12
:10578000DF7E1D7F0022B8E70024254622462746FB
:10579000B3E700BFE8EF00201405002024F000204C
:1057A000240500200130042800F2B280DFE800F078
:1057B000452803698D00574B9B78032B00F2A88086
:1057C000DFE803F002091017524B1A78013A1A70F9
:1057D00003229A7070474F4B5A7801325A70002258
:1057E0009A7070474B4B1A7801321A7001229A70E6
:1057F0007047484B5A78013A5A7002229A707047A3
:10580000444B9B78032B00F28380DFE803F0020710
:105810000C11404A53780133537070473D4A137856
:105820000133137070473B4A5378013B5370704704
:10583000384A1378013B13707047364B9B78032B23
:1058400066D8DFE803F002091017324B1A780132EC
:105850001A7001229A7070472E4B5A78013A5A708A
:1058600002229A7070472B4B1A78013A1A70032261
:105870009A707047274B5A7801325A7000229A70FA
:105880007047244B9B78032B42D8DFE803F00209D2
:105890001017204B5A78013A5A7002229A707047BA
:1058A0001C4B1A78013A1A7003229A707047194BF0
:1058B0005A7801325A7000229A707047154B1A7844
:1058C00001321A7001229A707047124B9B78032B99
:1058D0001ED8DFE803F0020910170E4B5A78013A80
:1058E0005A7002229A7070470A4B1A78013A1A705D
:1058F00003229A707047074B5A7801325A7000227F
:105900009A707047034B1A7801321A7001229A700C
:10591000704700BF2405002030B4A74B9B78032BB1
:1059200000F24481DFE813F004005300A300F2000A
:10593000A14B1A785978481CA04B03EB02131B5C4F
:10594000FD2B0BD80E2931D89C4800EB02100844DF
:1059500090F8000268B30220FE2301E00220FE233B
:10596000541E964D05EB0414645C9C4208D23AB177
:1059700005EB02150D4495F800550DB9234601209D
:10598000541C8E4D05EB0414645C9C420AD20E2A12
:1059900008D805EB0212114491F8002312B92346EE
:1059A0004FF0FF30FE2B06D030BC70470220FE23A4
:1059B000D6E70020D4E7824B5B7B002B00F0F88019
:1059C0007F4B5B7BDBB2012BEED10320ECE77A4A05
:1059D0001178481C5278794B03EB00139B5CFD2B2C
:1059E0000CD80E293ED8754800EB0110104490F8F1
:1059F0000003002839D00220FE2301E00220FE230C
:105A0000541C6E4D05EB01152C5D9C420AD20E2AEA
:105A100008D86A4D05EB0115154495F800520DB9EB
:105A200023460120541E654D05EB01152C5D9C425B
:105A30000AD24AB1614D05EB01110A4492F80024E3
:105A400012B923464FF0FF30FE2BADD15C4B5B7B90
:105A5000002B00F0AF805A4B5B7BDBB2012BA3D154
:105A60000320A1E70220FE23CAE70020C8E7524B2B
:105A70001A785978481E514B03EB02131B5CFD2B1F
:105A80000CD800293DD04D4800EB0210084490F896
:105A90000004002838D00220FE2301E00220FE236B
:105AA000541C464D05EB0414645C9C4209D20E2A3A
:105AB00007D805EB02150D4495F800530DB92346A0
:105AC0000120541E3D4D05EB0414645C9C4209D238
:105AD00042B105EB0212114491F8002512B9234698
