:020000040800F2
:10000000000002209D530008C5160008C71600080E
:10001000C9160008CB160008CD1600080000000025
:10002000000000000000000000000000CF160008E3
:10003000D116000800000000D3160008D5160008ED
:10004000ED530008ED530008ED530008ED53000890
:10005000ED530008ED530008ED530008ED53000880
:10006000ED530008ED530008ED530008ED53000870
:10007000ED530008ED530008ED530008ED53000860
:10008000ED530008ED530008ED530008ED53000850
:10009000ED530008ED530008ED530008ED53000840
:1000A000ED530008ED530008ED530008ED53000830
:1000B000ED530008ED530008ED530008ED53000820
:1000C000ED530008ED530008ED530008ED53000810
:1000D000ED530008ED530008ED530008ED53000800
:1000E000ED530008ED530008ED530008ED530008F0
:1000F000ED530008ED530008ED530008ED530008E0
:10010000ED530008ED530008C1170008ED53000837
:10011000ED530008ED530008ED530008ED530008BF
:10012000ED530008ED530008ED530008ED530008AF
:10013000ED5300080000000000000000ED5300082F
:10014000ED530008ED530008ED530008ED5300088F
:10015000ED530008ED530008ED530008ED5300087F
:10016000ED530008ED530008ED530008ED5300086F
:10017000ED530008ED5300080000000000000000EF
:08018000ED530008ED530008E7
:1001900010B5054C237833B9044B13B10448AFF3C1
:1001A00000800123237010BDDC010020000000004E
:1001B000687D000808B5034B1BB103490348AFF342
:1001C000008008BD00000000E0010020687D0008FC
:1001D000034613F8012B002AFBD1181A0138704787
:1001E00001F0FF01102A2BDB10F0070F08D010F8E8
:1001F000013B013A8B422DD010F0070F42B3F6D1EC
:10020000F0B441EA012141EA014122F007047FF004
:1002100000070023F0E80256083C85EA010586EA5B
:10022000010685FA47F5A3FA87F586FA47F6A5FA97
:1002300087F68EB9EED1F0BC01F0FF0102F00702A3
:1002400032B110F8013B013A83EA010313B1F8D14E
:100250000020704701387047002D06BF354603382F
:10026000073815F0010F07D1013015F4807F02BF68
:10027000013015F4C03F0130F0BC0138704700BFB9
:1002800081F0004102E000BF83F0004330B54FEA47
:1002900041044FEA430594EA050F08BF90EA020FB4
:1002A0001FBF54EA000C55EA020C7FEA645C7FEA47
:1002B000655C00F0E2804FEA5454D4EB5555B8BF6A
:1002C0006D420CDD2C4480EA020281EA030382EADB
:1002D000000083EA010180EA020281EA0303362D6D
:1002E00088BF30BD11F0004F4FEA01314FF4801C40
:1002F0004CEA113102D0404261EB410113F0004F52
:100300004FEA03334CEA133302D0524263EB430308
:1003100094EA050F00F0A780A4F10104D5F1200EA6
:100320000DDB02FA0EFC22FA05F2801841F1000101
:1003300003FA0EF2801843FA05F359410EE0A5F1D5
:1003400020050EF1200E012A03FA0EFC28BF4CF006
:10035000020C43FA05F3C01851EBE37101F00045BC
:1003600007D54FF0000EDCF1000C7EEB00006EEBC9
:100370000101B1F5801F1BD3B1F5001F0CD3490853
:100380005FEA30004FEA3C0C04F101044FEA4452AA
:1003900012F5800F80F09A80BCF1004F08BF5FEA31
:1003A000500C50F1000041EB045141EA050130BD11
:1003B0005FEA4C0C404141EB010111F4801FA4F1B4
:1003C0000104E9D191F0000F04BF01460020B1FA09
:1003D00081F308BF2033A3F10B03B3F120020CDA41
:1003E0000C3208DD02F1140CC2F10C0201FA0CF01F
:1003F00021FA02F10CE002F11402D8BFC2F1200C84
:1004000001FA02F120FA0CFCDCBF41EA0C01904039
:10041000E41AA2BF01EB0451294330BD6FEA040482
:100420001F3C1CDA0C340EDC04F11404C4F120026D
:1004300020FA04F001FA02F340EA030021FA04F37F
:1004400045EA030130BDC4F10C04C4F1200220FAD6
:1004500002F001FA04F340EA0300294630BD21FA14
:1004600004F0294630BD94F0000F83F4801306BFDA
:1004700081F480110134013D4EE77FEA645C18BFCE
:100480007FEA655C29D094EA050F08BF90EA020F65
:1004900005D054EA000C04BF1946104630BD91EA5D
:1004A000030F1EBF0021002030BD5FEA545C05D160
:1004B0004000494128BF41F0004130BD14F580049F
:1004C0003CBF01F5801130BD01F0004545F0FE4113
:1004D00041F470014FF0000030BD7FEA645C1ABF48
:1004E000194610467FEA655C1CBF0B46024650EA7F
:1004F000013406BF52EA033591EA030F41F40021AB
:1005000030BD00BF90F0000F04BF0021704730B530
:100510004FF4806404F132044FF000054FF0000105
:1005200050E700BF90F0000F04BF0021704730B5C6
:100530004FF4806404F1320410F0004548BF40429B
:100540004FF000013EE700BF42004FEAE2014FEAF0
:1005500031014FEA02701FBF12F07F4393F07F4FCB
:1005600081F06051704732F07F4208BF704793F0CE
:100570007F4F04BF41F40021704730B54FF46074E1
:1005800001F0004521F000411CE700BF50EA0102E4
:1005900008BF704730B54FF000050AE050EA01028D
:1005A00008BF704730B511F0004502D5404261EBFD
:1005B00041014FF4806404F132045FEA915C3FF43E
:1005C000D8AE4FF003025FEADC0C18BF03325FEADB
:1005D000DC0C18BF033202EBDC02C2F1200300FA8C
:1005E00003FC20FA02F001FA03FE40EA0E0021FAB1
:1005F00002F11444BDE600BF70B54FF0FF0C4CF49F
:10060000E06C1CEA11541DBF1CEA135594EA0C0F50
:1006100095EA0C0F00F0DEF82C4481EA030621EA8B
:100620004C5123EA4C5350EA013518BF52EA0335C6
:1006300041F4801143F4801338D0A0FB02CE4FF078
:100640000005E1FB02E506F00042E0FB03E54FF0A8
:100650000006E1FB03569CF0000F18BF4EF0010EA0
:10066000A4F1FF04B6F5007F64F5407404D25FEA9C
:100670004E0E6D4146EB060642EAC62141EA55514F
:100680004FEAC52040EA5E504FEACE2EB4F1FD0C91
:1006900088BFBCF5E06F1ED8BEF1004F08BF5FEA0F
:1006A000500E50F1000041EB045170BD06F00046C1
:1006B00046EA010140EA020081EA0301B4EB5C046E
:1006C000C2BFD4EB0C0541EA045170BD41F4801166
:1006D0004FF0000E013C00F3AB8014F1360FDEBF8B
:1006E000002001F0004170BDC4F10004203C35DA67
:1006F0000C341BDC04F11404C4F1200500FA05F3EA
:1007000020FA04F001FA05F240EA020001F000428A
:1007100021F0004110EBD37021FA04F642EB060100
:100720005EEA430E08BF20EAD37070BDC4F10C042A
:10073000C4F1200500FA04F320FA05F001FA04F2EE
:1007400040EA020001F0004110EBD37041F10001DA
:100750005EEA430E08BF20EAD37070BDC4F12005E5
:1007600000FA05F24EEA020E20FA04F301FA05F24D
:1007700043EA020321FA04F001F0004121FA04F2F5
:1007800020EA020000EBD3705EEA430E08BF20EAC5
:10079000D37070BD94F0000F0FD101F000464000FF
:1007A00041EB010111F4801F08BF013CF7D041EA81
:1007B000060195F0000F18BF704703F00046520085
:1007C00043EB030313F4801F08BF013DF7D043EA56
:1007D0000603704794EA0C0F0CEA135518BF95EA0C
:1007E0000C0F0CD050EA410618BF52EA4306D1D193
:1007F00081EA030101F000414FF0000070BD50EAB2
:10080000410606BF1046194652EA430619D094EA3B
:100810000C0F02D150EA013613D195EA0C0F05D125
:1008200052EA03361CBF104619460AD181EA030179
:1008300001F0004141F0FE4141F470014FF0000031
:1008400070BD41F0FE4141F4780170BD70B54FF0CC
:10085000FF0C4CF4E06C1CEA11541DBF1CEA13554C
:1008600094EA0C0F95EA0C0F00F0A7F8A4EB05042E
:1008700081EA030E52EA03354FEA013100F0888025
:100880004FEA03334FF0805545EA131343EA1263EE
:100890004FEA022245EA111545EA10654FEA0026A3
:1008A0000EF000419D4208BF964244F1FD0404F55C
:1008B000407402D25B084FEA3202B61A65EB0305B8
:1008C0005B084FEA32024FF480104FF4002CB6EB75
:1008D000020E75EB030E22BFB61A754640EA0C00F5
:1008E0005B084FEA3202B6EB020E75EB030E22BF35
:1008F000B61A754640EA5C005B084FEA3202B6EB76
:10090000020E75EB030E22BFB61A754640EA9C0034
:100910005B084FEA3202B6EB020E75EB030E22BF04
:10092000B61A754640EADC0055EA060E18D04FEAC2
:10093000051545EA16754FEA06164FEAC30343EA62
:1009400052734FEAC2025FEA1C1CC0D111F4801F2F
:100950000BD141EA00014FF000004FF0004CB6E728
:1009600011F4801F04BF01430020B4F1FD0C88BFC7
:10097000BCF5E06F3FF6AFAEB5EB030C04BFB6EBD2
:10098000020C5FEA500C50F1000041EB045170BDC5
:100990000EF0004E4EEA113114EB5C04C2BFD4EBF2
:1009A0000C0541EA045170BD41F480114FF0000E76
:1009B000013C90E645EA060E8DE60CEA135594EAF2
:1009C0000C0F08BF95EA0C0F3FF43BAF94EA0C0FF5
:1009D0000AD150EA01347FF434AF95EA0C0F7FF46A
:1009E00025AF104619462CE795EA0C0F06D152EABE
:1009F00003353FF4FDAE1046194622E750EA4106A2
:100A000018BF52EA43067FF4C5AE50EA41047FF4B2
:100A10000DAF52EA43057FF4EBAE12E74FF0FF3C17
:100A200006E000BF4FF0010C02E000BF4FF0010CE8
:100A30004DF804CD4FEA410C7FEA6C5C4FEA430C61
:100A400018BF7FEA6C5C1BD001B050EA410C0CBFB0
:100A500052EA430C91EA030F02BF90EA020F002012
:100A6000704710F1000F91EA030F58BF994208BF79
:100A700090422CBFD8176FEAE37040F00100704736
:100A80004FEA410C7FEA6C5C02D150EA013C07D18D
:100A90004FEA430C7FEA6C5CD6D152EA033CD3D0D8
:100AA0005DF8040B704700BF8446104662468C46D2
:100AB0001946634600E000BF01B5FFF7B7FF002805
:100AC00048BF10F1000F01BD4DF808EDFFF7F4FF2E
:100AD0000CBF012000205DF808FB00BF4DF808EDB9
:100AE000FFF7EAFF34BF012000205DF808FB00BFDC
:100AF0004DF808EDFFF7E0FF94BF012000205DF8FE
:100B000008FB00BF4DF808EDFFF7CEFF94BF0120B2
:100B100000205DF808FB00BF4DF808EDFFF7C4FFAB
:100B200034BF012000205DF808FB00BF4FEA410CF4
:100B30007FEA6C5C02D150EA013C0AD14FEA430CD7
:100B40007FEA6C5C02D152EA033C02D14FF0000014
:100B500070474FF0010070474FEA410212F5001252
:100B600015D211D56FF47873B3EB625212D94FEAF4
:100B7000C12343F0004343EA505311F0004F23FADE
:100B800002F018BF404270474FF00000704750EA33
:100B9000013005D111F0004008BF6FF000407047F0
:100BA0004FF00000704700BF53B94AB9002908BF91
:100BB00000281CBF4FF0FF314FF0FF3000F072B93A
:100BC000ADF1080C6DE904CE00F006F8DDF804E0A4
:100BD000DDE9022304B070472DE9F047089E044682
:100BE0008846002B4BD18A42154667D9B2FA82F269
:100BF0004AB1C2F1200701FA02F320FA07F7954043
:100C000047EA030894404FEA154E230CB8FBFEF761
:100C10001FFA85FC0EFB178843EA084307FB0CF11B
:100C2000994209D9EB1807F1FF3080F01B819942F6
:100C300040F21881023F2B445B1AA4B2B3FBFEF0D2
:100C40000EFB103344EA034400FB0CFCA44509D915
:100C50002C1900F1FF3380F00781A44540F2048194
:100C600002382C4440EA0740A4EB0C0400271EB1D4
:100C7000D4400023C6E900433946BDE8F0878B42E3
:100C800009D9002E00F0EB800027C6E900013846A4
:100C90003946BDE8F087B3FA83F7002F47D18B427E
:100CA00002D3824200F2FA80841A61EB030301202E
:100CB0009846002EE0D0C6E90048DDE702B9FFDE25
:100CC000B2FA82F2002A40F08F80491B4FEA154E9B
:100CD0001FFA85F80127B1FBFEFC230C0EFB1C114B
:100CE00043EA014308FB0CF1994207D9EB180CF1D8
:100CF000FF3002D2994200F2CD808446591AA3B245
:100D0000B1FBFEF00EFB101443EA044408FB00F8AC
:100D1000A04507D92C1900F1FF3302D2A04500F2FB
:100D2000B6801846A4EB080440EA0C409FE7C7F1E0
:100D3000200CBB4022FA0CFE4EEA030E01FA07F427
:100D400020FA0CF521FA0CF34FEA1E482543B3FBB9
:100D5000F8F92C0C08FB19331FFA8EFA44EA034306
:100D600009FB0AF49C4202FA07F200FA07F10BD9D8
:100D70001EEB030309F1FF3080F087809C4240F2B4
:100D80008480A9F1020973441B1BADB2B3FBF8F0D8
:100D900008FB103345EA034400FB0AFAA24508D9D0
:100DA0001EEB040400F1FF336BD2A24569D902386F
:100DB000744440EA0940A0FB0289A4EB0A044C45B4
:100DC000C2464B4654D351D0002E69D0B1EB0A0530
:100DD00064EB030404FA0CFCFD40FC404CEA0505FE
:100DE000C6E90054002747E7C2F1200320FA03F7C1
:100DF000954001FA02F021FA03F34FEA154E384309
:100E0000010CB3FBFEF71FFA85F80EFB173341EA1E
:100E1000034107FB08F38B4204FA02F407D969186F
:100E200007F1FF3C2FD28B422DD9023F2944CB1A28
:100E300081B2B3FBFEF00EFB103341EA034100FB2D
:100E400008F38B4207D9691800F1FF3C17D28B4297
:100E500015D902382944C91A40EA07473BE7374603
:100E6000304609E70746E7E61846FBE64145ABD2C0
:100E7000B8EB020A69EB0E0201381346A4E760469C
:100E8000E9E7184695E76746D1E781467CE70238EF
:100E90002C4447E7ACF1020C2B442FE7384608E717
:100EA0003746E9E6704700BF10B504460E4B187888
:100EB0004FF47A73B3FBF0F30C4A1068B0FBF3F015
:100EC00002F0AAFB68B90F2C01D901200AE0002228
:100ED00021464FF0FF3002F05FFB054B1C60002005
:100EE00000E0012010BD00BF00000020080000202D
:100EF0000400002008B50B4B1A6842F400721A6017
:100F00001A6842F480621A601A6842F480721A60A9
:100F1000032002F02FFB0020FFF7C6FF02F02CFE9B
:100F2000002008BD003C0240034A1168034B1B78B7
:100F30000B441360704700BF100200200000002027
:100F4000014B1868704700BF1002002038B50446F6
:100F5000FFF7F6FF0546B4F1FF3F02D0044B1B78C4
:100F60001C44FFF7EDFF401BA042FAD338BD00BF81
:100F7000000000200F49D1F8883043F47003C1F815
:100F800088300D4B1A6842F001021A600020986008
:100F90001A6822F0847222F480321A60074A5A607A
:100FA0001A6822F480221A60D8604FF000638B60C8
:100FB000704700BF00ED00E0003802401030002410
:100FC00000230F2B00F2D780F0B482B039E0072263
:100FD00000E00022B2403A430234674E46F8242033
:100FE000664A1468EA4302EA04064F6817F4803F31
:100FF00001D045EA0406614C2660646802EA0406F2
:101000004F6817F4003F01D045EA04065B4C666068
:10101000A46802EA04064F6817F4801F01D045EA6D
:101020000406564CA660E46822404E6816F4001F81
:1010300001D045EA0402514CE26001330F2B00F26B
:10104000978001229A400C6804EA0205AA42F4D172
:101050004C68022C01D0122C10D1DE08083650F852
:1010600026C003F00704A7000F24BC402CEA040CA0
:101070000C69BC4044EA0C0440F8264004685F0058
:101080000326BE40F64306EA040C4C6804F0030451
:10109000BC4044EA0C0404604C6804F1FF3CBCF121
:1010A000010F03D9112C01D0122C10D1846806EA4B
:1010B000040CCC68BC4044EA0C048460446824EA14
:1010C00002024C68C4F300149C4014434460C2689C
:1010D00016408A68BA403243C2604A6812F0805FA4
:1010E000ABD000220192264A546C44F480445464EC
:1010F000526C02F480420192019A9C08A61C1E4A7E
:1011000052F8267003F0030296000F22B24027EA3D
:1011100002071C4A90423FF45CAF02F580629042A5
:101120001AD002F58062904218D002F58062904297
:1011300016D002F58062904214D002F5806290428F
:1011400012D002F58062904210D002F58062904287
:101150003FF43DAF08223DE701223BE7022239E799
:10116000032237E7042235E7052233E7062231E779
:1011700002B0F0BC7047704700380140003C0140AD
:1011800000380240000002400369194201D10020EA
:1011900070470120704712B909048161704781616D
:1011A0007047000000B585B01648174B03604FF438
:1011B0008033436000238360036183610362C36201
:1011C000124A8262C3600122C2610363426102F07B
:1011D000E7FA68B9042300930123019303230293E0
:1011E0006946084802F000FC38B905B05DF804FB18
:1011F0004A21074801F0F8FAECE75421044801F0CD
:10120000F3FAF2E75C020020002001400100000F29
:10121000987D000800B585B01648174B03604FF461
:101220008033436000238360036183610362C36290
:10123000124A8262C3600122C2610363426102F00A
:10124000AFFA60B90023009301220192029369462C
:10125000084802F0C9FB38B905B05DF804FB6D2100
:10126000074801F0C1FAEDE77721054801F0BCFA23
:10127000F2E700BF14020020002101400100000F2E
:10128000987D000800B585B01648174B03604FF4F1
:101290008033436000238360036183610362C36220
:1012A000124A8262C3600122C2610363426102F09A
:1012B00077FA60B9012300930193002302936946F2
:1012C000084802F091FB38B905B05DF804FB9021A5
:1012D000074801F089FAEDE79A21054801F084FA00
:1012E000F2E700BFA4020020002201400100000F2D
:1012F000987D000800B589B00368274A934208D05A
:10130000264A93421BD0264A93422ED009B05DF85C
:1013100004FB00210091234B5A6C42F480725A6402
:101320005B6C03F480730093009B102303930323EF
:101330000493059103A91C48FFF742FEE6E700214C
:101340000191184B5A6C42F400725A645B6C03F4BE
:1013500000730193019B09230393032304930591D5
:1013600003A91148FFF72CFED0E7002102910D4B95
:101370005A6C42F480625A645B6C03F4806302939B
:10138000029B0623039303230493059103A90648B4
:10139000FFF716FEBAE700BF002001400021014020
:1013A00000220140003802400000024010B584B025
:1013B0000423009301230193032302930C4C6946F9
:1013C000204602F011FB204602F014FA32210848B0
:1013D00002F0ACFA0028F9D1054C204602F001FBDE
:1013E000044B1880204602F081FA04B010BD00BF03
:1013F0005C0200201005002010B584B00123019389
:101400000323029304A9002341F8103D184C204601
:1014100002F0EAFA204602F0EDF93221144802F017
:1014200085FA0028F9D1124C204602F0DAFA114B65
:101430001880204602F05AFA04A9032341F8103D0F
:10144000204602F0D1FA204602F0D4F932210848B1
:1014500002F06CFA0028F9D1054C204602F0C1FADE
:10146000044BD880204602F041FA04B010BD00BF02
:101470001402002010C1002010B584B00123019394
:101480000322029204A941F8103D184C204602F0B4
:10149000ABFA204602F0AEF93221144802F046FAC7
:1014A0000028F9D1114C204602F09BFA104B5880CD
:1014B000204602F01BFA04A9022341F8103D204601
:1014C00002F092FA204602F095F93221074802F024
:1014D0002DFA0028F9D1054C204602F082FA044B7F
:1014E0009880204602F002FA04B010BDA402002049
:1014F00010C1002010B584B001230193032302938F
:1015000004A9002341F8103D184C204602F06CFA63
:10151000204602F06FF93221144802F007FA002841
:10152000F9D1124C204602F05CFA114B188120468A
:1015300002F0DCF904A9032341F8103D204602F033
:1015400053FA204602F056F93221084802F0EEF92B
:101550000028F9D1054C204602F043FA044BD8810B
:10156000204602F0C3F904B010BD00BF14020020F1
:1015700010C1002010B584B0012301930322029210
:1015800004A941F8103D184C204602F02DFA2046DF
:1015900002F030F93221144802F0C8F90028F9D1DC
:1015A000114C204602F01DFA104B5881204602F0E3
:1015B0009DF904A9022341F8103D204602F014FAD7
:1015C000204602F017F93221074802F0AFF900284F
:1015D000F9D1054C204602F004FA044B98812046CC
:1015E00002F084F904B010BDA402002010C1002054
:1015F00000230BE0324A32F81310181D32F81000A5
:10160000091A03F1080022F810100133032BF1DD51
:101610002B4B1B8AB3F55C6F0BD9294B9B8B142B7F
:1016200003D9274B01221A7607E00133244A93831A
:1016300003E0234B00221A769A83214B5A8A40F604
:1016400048539A420BD91E4BDB8B142B03D91C4BEE
:1016500001225A7607E00133194AD38303E0184B7D
:1016600000225A76DA83164B9A8A40F6F8439A4259
:101670000BD9134B1B8C142B03D9114B01229A76D7
:1016800007E001330E4A138403E00D4B00229A76E3
:101690001A840B4BDA8A40F6AC539A420BD9084BAA
:1016A0005B8C142B03D9064B0122DA767047013389
:1016B000034A53847047024B0022DA765A847047FB
:1016C00010C100207047FEE7FEE7FEE7FEE7704727
:1016D0007047704710B5FFF727FC01F0C4FF2C4B93
:1016E000B3F90030012B1CD002F06AFF01F0E2FEDA
:1016F000274BB3F90230012B2BD00023254A13804E
:10170000254A1380254A1380214BB3F90430012B5D
:1017100022D00023224A1380224A138003F030FA99
:1017200010BD02F02DFF07EE900AF8EEE76A9FED7C
:101730001E7AC6EE877A1D4BC3ED047A9FED1C7AA4
:1017400067EE877A93ED037A77EE277AC3ED037A13
:10175000CCE703F097F8D7E703F0BCF9154BB3F9E2
:101760000C3007EE903A0E4B1A889100124B0B4446
:10177000F8EEE77AC3ED007A0C4804690F4B194480
:101780000C60C16802F6B83203EB82031960C5E74A
:10179000F8040020E8040020F0020020F2020020FB
:1017A000EA040020FC020020333383414834002047
:1017B0006F12833A4C0500202892002060340020EC
:1017C00008B51B4802F05EFB1A4A138801339BB22E
:1017D0001380013B072B26D8DFE803F004070B102A
:1017E00013171A1FFFF7C6FE08BD062000F042F9C6
:1017F000FAE7FFF741FE00F023F9F5E7FFF77AFE7D
:10180000F2E7092000F036F9EEE7FFF7F5FDEBE728
:1018100000F016F9FFF7CAFDE6E7FFF7E9FE054B12
:1018200000221A80E0E7034B00221A80DCE700BFA9
:10183000840300203CC1002090F83830012B22D0D6
:1018400030B4012280F83820022380F8393004684F
:10185000636823F070036360046863680D682B435A
:1018600063600468A36823F08003A3600468A3682E
:1018700049680B43A36080F83920002380F8383092
:10188000184630BC70470220704790F83830012B62
:1018900025D0012380F83830CB6823F440738A6860
:1018A000134323F480634A68134323F400630A68F4
:1018B000134323F480530A69134323F400534A6902
:1018C000134323F480438A69134323F400431343EF
:1018D00002685364002380F83830184670470220AD
:1018E0007047704770470000F0B58BB0002401943A
:1018F0002A4B1A6B42F004021A631A6B02F00402BC
:101900000192019A02941A6B42F001021A631A6B57
:1019100002F001020292029A03941A6B42F0020250
:101920001A631A6B02F002020392039A04941A6B70
:1019300042F008021A631B6B03F008030493049B34
:10194000174F224646F2CF113846FFF724FC154DBB
:1019500022464FF480512846FFF71DFC46F2CF1374
:101960000593012606960794089405A93846FFF7C3
:1019700027FB4FF48053059306960794089405A916
:101980002846FFF71DFB042305930694079405A939
:101990000548FFF715FB0BB0F0BD00BF0038024053
:1019A0000008024000040240000C024010B5074C41
:1019B00004212046FFF7E8FB04212046FFF7E4FB63
:1019C000012801D0012010BD0020FCE7000C0240DE
:1019D00010B50C4C00224FF400512046FFF7DBFB02
:1019E00000224FF480412046FFF7D5FB00228021E2
:1019F0002046FFF7D0FB00224FF480712046FFF70E
:101A0000CAFB10BD0008024010B50C4C01224FF477
:101A100000512046FFF7BFFB01224FF480412046D2
:101A2000FFF7B9FB012280212046FFF7B4FB01221A
:101A30004FF480712046FFF7AEFB10BD0008024056
:101A400010B50B4C002201212046FFF7A4FB002219
:101A500002212046FFF79FFB002204212046FFF7CA
:101A60009AFB002208212046FFF795FB10BD00BF1E
:101A70000008024010B5214BB3F90630012B39D1D3
:101A8000044610F0010F1DD0012211461C48FFF73B
:101A900082FB14F0020F1BD0012202211848FFF72D
:101AA0007AFB14F0040F19D0012204211448FFF727
:101AB00072FB14F0080F17D0012208211048FFF71D
:101AC0006AFB19E0002201210D48FFF764FBE0E703
:101AD000002202210A48FFF75EFBE2E70022042110
:101AE0000748FFF758FBE4E7002208210448FFF706
:101AF00052FB01E0FFF7A4FF10BD00BFF804002077
:101B000000080240F8B505460F4616461C463BE065
:101B10002CB1FFF715FA069BC01AA04234D32A68ED
:101B2000536823F0E00353606B68B3F5827F0BD0FA
:101B3000AB6AB3F5005F14D0012385F85130002360
:101B400085F85030032027E0AB68B3F5004F02D092
:101B5000B3F5806FECD12A68136823F0400313605B
:101B6000E6E72A68136823F400531B041B0C136078
:101B70002A68136843F400531360DDE70123B3427E
:101B800009D0B4F1FF3FC3D12B689B6837EA030348
:101B9000F4D00023F3E70020F8BD10B582B004466E
:101BA00000920B4600228021FFF7ACFF034610B9DC
:101BB000184602B010BD636D43F020036365032334
:101BC000F6E700283BD010B504460023836290F866
:101BD0005130002B2ED0022384F851302268136834
:101BE00023F0400313606368A2681343E268134361
:101BF0002269134362691343A26902F4007213431A
:101C0000E2691343226A1343A16A22680B431360FB
:101C1000638B03F00403616A22680B4353602268FC
:101C2000D36923F40063D36100206065012384F845
:101C3000513010BD80F8503002F0D2FBCBE70120CC
:101C400070472DE9F04184B01E4690F85030012BCA
:101C500000F0C88004460D469046012380F85030BD
:101C6000FFF76EF9074694F85130DBB2012B0AD02A
:101C70000223012284F85120002284F850201846C3
:101C800004B0BDE8F081002D00F0A480B8F1000F91
:101C900000F0A280032384F851300023636525639C
:101CA000A4F83480A4F83680A363A387E387636431
:101CB0002364A368B3F5004F1BD023681A6812F0A1
:101CC000400F03D11A6842F040021A60E368B3F58E
:101CD000006F14D063681BB1E38E9BB2012B3ED121
:101CE000236815F8012B1A73E38E013B9BB2E38640
:101CF00035E02268136843F480431360DDE76368CE
:101D00001BB1E38E9BB2012B0DD1236835F8022B5A
:101D1000DA60E38E013B9BB2E38604E0002E5DD0E7
:101D2000B6F1FF3F0FD1E38E9BB27BB323689A6875
:101D300012F0020FF2D035F8022BDA60E38E013B8D
:101D40009BB2E386EFE7FFF7FBF8C01BB042EAD394
:101D500003238EE7002E43D0B6F1FF3F0FD1E38E71
:101D60009BB29BB123689A6812F0020FF2D015F86B
:101D7000012B1A73E38E013B9BB2E386EFE7FFF77B
:101D8000DFF8C01BB042EAD3032372E70097334663
:101D9000012202212046FFF7B5FE08B1032368E7C0
:101DA0003A4631462046FFF7F8FE034618B1202395
:101DB000636501235DE7A26832B903922268D168A6
:101DC000039192680392039A626D002A3FF451AF27
:101DD00001234EE701234CE701234AE7032348E7A9
:101DE000032346E702234AE72DE9F04385B09946ED
:101DF0000C9D90F85030012B00F0108104460F46E6
:101E00001646012380F85030FFF79AF8804694F880
:101E10005130DBB26268012B15D0B2F5827F0AD057
:101E20000223012284F85120002284F85020184611
:101E300005B0BDE8F083A268002A40F0E780042BDB
:101E400001D00223EDE7002F00F0E280002E00F029
:101E5000E180B9F1000F00F0DF8094F85130DBB27F
:101E6000012B2BD000236365A663A4F83E90A4F851
:101E70003C902763A4F83690A4F8349023646364FC
:101E800023681A6812F0400F03D11A6842F040022A
:101E90001A60E368B3F5006F14D063681BB1E38E7A
:101EA0009BB2012B07D1236817F8012B1A73E38E1D
:101EB000013B9BB2E3864FF0010961E0052384F802
:101EC0005130CFE763681BB1E38E9BB2012B07D182
:101ED000236837F8022BDA60E38E013B9BB2E3867E
:101EE0004FF0010913E0E38F9BB26BB123689A684E
:101EF00012F0010F08D0DB6826F8023BE38F013BAC
:101F00009BB2E3874FF00109B5F1FF3F1CD1E38E8F
:101F10009BB21BB9E38F9BB2002B55D0B9F1000FD8
:101F2000E1D0E38E9BB2002BDDD023689A6812F0DB
:101F3000020FD8D037F8022BDA60E38E013B9BB258
:101F4000E3864FF00009CEE7FEF7FAFFA0EB0800AA
:101F5000A842DCD3032364E7E38F9BB26BB1236811
:101F60009A6812F0010F08D0DB683370E38F013BF1
:101F70009BB2E38701364FF00109B5F1FF3F1BD15A
:101F8000E38E9BB213B9E38F9BB2EBB1B9F1000FB3
:101F9000E2D0E38E9BB2002BDED023689A6812F069
:101FA000020FD9D03A781A73E38E013B9BB2E386D5
:101FB00001374FF00009CFE7FEF7C2FFA0EB0800A2
:101FC000A842DDD303232CE7CDF800802B46012265
:101FD00002212046FFF796FD08B1032321E7424680
:101FE00029462046FFF7D9FD034618B12023636533
:101FF000012316E7A268002A7FF413AF0392226838
:10200000D168039192680392039A0AE7022308E7D2
:10201000012306E7012304E7012302E7022306E781
:102020002DE9F04182B004460D4617461E4643682E
:10203000B3F5827F19D094F85030012B00F0A280C4
:10204000012384F85030FEF77BFF804694F851302E
:10205000DBB2012B15D00220012384F8513000237C
:1020600084F8503002B0BDE8F0818368002BE2D1E3
:10207000042380F85130009613460A46FFF7B4FE59
:10208000F0E7002D74D0002F74D0042384F8513071
:1020900000236365A563A787E7872363A386E38699
:1020A00023646364A368B3F5004F0BD023681A68F8
:1020B00012F0400F03D11A6842F040021A60E36840
:1020C0005BB128E02268136823F480431360EDE7D6
:1020D000002E51D0B6F1FF3F10D1E38F9BB2002B01
:1020E00031D023689A6812F0010FF1D01B7B05F8FC
:1020F000013BE38F013B9BB2E387EEE7FEF720FF56
:10210000A0EB0800B042E8D30320A5E7002E35D0AD
:10211000B6F1FF3F0FD1E38F9BB2A3B123689A685A
:1021200012F0010FF2D0DB6825F8023BE38F013B90
:102130009BB2E387EFE7FEF703FFA0EB0800B04296
:10214000E9D3032088E76368B3F5827F03D0636D2A
:10215000B3B9002080E7A368B3F5004F02D0B3F510
:10216000806FF4D12268136823F040031360EEE718
:10217000012071E701206FE703206DE703206BE783
:10218000012069E702206DE7002800F0BB8170B5EF
:1021900082B00446036813F0010F3BD0A74B9B6845
:1021A00003F00C03042B2CD0A44B9B6803F00C030E
:1021B000082B21D06368B3F5803F4FD0B3F5A02F33
:1021C00052D09E4B1A6822F480321A601A6822F4A8
:1021D00080221A606368002B50D0FEF7B1FE0546DE
:1021E000964B1B6813F4003F14D1FEF7A9FE401B69
:1021F0006428F5D903208AE1904B5B6813F4800FC3
:10220000D8D08E4B1B6813F4003F03D06368002BBB
:1022100000F07A81236813F0020F55D0874B9B683A
:1022200013F00C0F3ED0854B9B6803F00C03082B7A
:1022300033D0E368002B68D0814B01221A60FEF78F
:102240007FFE05467D4B1B6813F0020F54D1FEF74D
:1022500077FE401B0228F5D9032058E1774A13681E
:1022600043F480331360B5E7744B1A6842F480225C
:102270001A601A6842F480321A60ABE7FEF760FE1B
:1022800005466E4B1B6813F4003FC3D0FEF758FEA3
:10229000401B6428F5D9032039E1684B5B6813F4CF
:1022A000800FC6D1654B1B6813F0020F04D0E368A2
:1022B000012B01D001202AE1604A136823F0F803C2
:1022C000216943EAC1031360236813F0080F40D06B
:1022D000636963B35B4B01221A60FEF731FE05466A
:1022E000564B5B6F13F0020F33D1FEF729FE401BF4
:1022F0000228F5D903200AE1504A136823F0F803B5
:10230000216943EAC1031360DEE74D4B00221A60E6
:10231000FEF716FE0546494B1B6813F0020FD3D09B
:10232000FEF70EFE401B0228F5D90320EFE0454BD7
:1023300000221A60FEF704FE0546404B5B6F13F067
:10234000020F06D0FEF7FCFD401B0228F5D9032042
:10235000DDE0236813F0040F79D0384B1B6C13F0C9
:10236000805F33D100230193344B1A6C42F08052CA
:102370001A641B6C03F080530193019B0125324BBF
:102380001B6813F4807F23D0A368012B34D0052B66
:1023900038D02A4B1A6F22F001021A671A6F22F006
:1023A00004021A67A368002B36D0FEF7C9FD064663
:1023B000224B1B6F13F0020F48D1FEF7C1FD801BAB
:1023C00041F288339842F3D90320A0E00025D6E7F4
:1023D0001D4A136843F480731360FEF7B1FD06468F
:1023E000194B1B6813F4807FCED1FEF7A9FD801B2B
:1023F0000228F5D903208AE0104A136F43F0010345
:102400001367CFE70D4B1A6F42F004021A671A6F79
:1024100042F001021A67C5E7FEF792FD0646074B38
:102420001B6F13F0020F11D0FEF78AFD801B41F2E3
:1024300088339842F3D9032069E000BF0038024096
:1024400000004742800E474200700040E5B9A36992
:10245000002B5BD0304A926802F00C02082A58D058
:10246000022B17D02D4B00221A60FEF769FD04469F
:10247000294B1B6813F0007F42D0FEF761FD001B63
:102480000228F5D9032042E0234A136C23F080533D
:102490001364DCE7214B00221A60FEF751FD05466C
:1024A0001D4B1B6813F0007F06D0FEF749FD401B53
:1024B0000228F5D903202AE0E369226A1343626AFD
:1024C00043EA8213A26A5208013A43EA0243E26AEB
:1024D00043EA0263104A5360104B01221A60FEF770
:1024E0002FFD04460C4B1B6813F0007F06D1FEF74E
:1024F00027FD001B0228F5D9032008E0002006E094
:10250000002004E001207047012000E0002002B01C
:1025100070BD0120FBE700BF003802406000474269
:10252000264B9B6803F00C03042B44D0082B01D0EE
:10253000234870472DE9F04B204B5A6802F03F02C8
:102540005B6813F4800F13D01C4B5968C1F38811DA
:1025500000231C48A1FB0001FEF726FB174B5B681C
:10256000C3F3014301335B00B0FBF3F0BDE8F08B34
:10257000124B5B68C3F388131E4600275C010025DD
:10258000E41A65EB0705A90141EA9461A001001B6B
:1025900061EB0501CB0043EA5073C400A01943EB83
:1025A00007018B0243EA9053840220461946002318
:1025B000FEF7FAFAD2E70348704700BF003802403E
:1025C0000024F40040787D01002800F09D8070B563
:1025D00004464F4B1B6803F00F038B4209D2CBB26A
:1025E0004B4A1370136803F00F038B4201D0012094
:1025F00070BD236813F0020F17D013F0040F04D03E
:10260000444A936843F4E0539360236813F0080F3F
:1026100004D0404A936843F4604393603D4A936812
:1026200023F0F003A068034393600D46236813F082
:10263000010F32D06368012B21D09A1E012A25D9BF
:10264000344A126812F0020F60D032498A6822F0D0
:10265000030213438B60FEF773FC06462D4B9B6809
:1026600003F00C036268B3EB820F16D0FEF768FC30
:10267000801B41F288339842F0D90320B8E7254AFD
:10268000126812F4003FE0D10120B1E7214A12683C
:1026900012F0007FD9D10120AAE71D4B1B6803F07F
:1026A0000F03AB4209D9EAB2194B1A701B6803F049
:1026B0000F03AB4201D001209AE7236813F0040F07
:1026C00006D0144A936823F4E053E1680B43936007
:1026D000236813F0080F07D00E4A936823F4604371
:1026E000216943EAC1039360FFF71AFF094B9B6816
:1026F000C3F30313084AD35CD840084B186000208A
:10270000FEF7D2FB002073E70120704701206FE73E
:10271000003C024000380240807D00080800002094
:10272000014B1868704700BF0800002008B5FFF78C
:10273000F7FF044B9B68C3F38223034AD35CD84062
:1027400008BD00BF00380240907D000808B5FFF7C3
:10275000E7FF044B9B68C3F34233034AD35CD84082
:1027600008BD00BF00380240907D000800B583B06E
:1027700002A901F8010D01231A46034800F0FCFAF2
:1027800003B05DF804FB00BF0003002008B50F4B49
:102790001B680021986803F055FB0D4801F0DDFA35
:1027A00018210C4801F0D6FD18210B4801F0D2FD8C
:1027B00001F0C2FE02F030FC084A0023D3805380AF
:1027C0009380074A1380074A138008BD0C0000203D
:1027D00084030020C003002040030020F8040020F0
:1027E000E8040020EA040020FEE7000000B595B0F0
:1027F00000220192294B196C41F0805119641B6C25
:1028000003F080530193019B0292254B196841F418
:10281000804119601B6803F480430293029B0223EA
:10282000089301210B9110210C910E930F92082215
:1028300010925022119212930423139308A8FFF7C9
:10284000A3FC18BB0F230393022304938023059357
:102850004FF48053069300230793012103A8FFF749
:10286000B3FEB8B9FFF75CFF0E4BA3FB0030800945
:1028700000F0D2FE042000F0E5FE002211464FF0E9
:10288000FF3000F089FE15B05DF804FBAA21064870
:10289000FFF7AAFFB8210448FFF7A6FF003802405F
:1028A00000700040D34D6210A47D000808B5FEF70B
:1028B00021FBFFF79BFFFFF717F800F019F800F076
:1028C00001FB01F069FD00F0C7FA00F0A3FC00F085
:1028D00025FC00F02DFBFEF765FCFEF79BFCFEF7E8
:1028E000D1FCFFF753FF02F0C7F902F003FAFAE751
:1028F00008B50B480B4B03604FF41653436000239D
:102900008360C36003610C2242618361C36100F094
:1029100004FA00B908BD42210348FFF765FFF9E753
:102920000003002000480040B07D00080268124B00
:102930009A4200D0704700B587B0002300930F4B38
:102940001A6C42F480221A641B6C03F480230093F7
:10295000009B4FF4406301930223029301230393EE
:10296000032304930723059301A90548FEF728FBD9
:1029700007B05DF804FB00BF00480040003802408B
:10298000000402402DE9F843044601680A6922F474
:102990004052C36813430B610168CA6822F41642AF
:1029A00022F00C0283680069034360690343E06915
:1029B00003431343CB6021684A6922F44072A36940
:1029C00013434B61E369B3F5004F60D02368B84A05
:1029D000934200F0148102F58062934200F00F816F
:1029E000FFF7A4FE00EB800000EB80006568AD00FF
:1029F000B0FBF5F5AF4FA7FB05356D092E01FFF7CD
:102A000095FE00EB800000EB80006568AD00B0FB38
:102A1000F5F9FFF78BFE00EB800000EB80006568A6
:102A2000AD00B0FBF5F5A7FB05356D094FF0640867
:102A300008FB15952D013235A7FB05356D0905F00D
:102A4000F0053544FFF772FE00EB800000EB8000DC
:102A50006668B600B0FBF6F6FFF768FE00EB800094
:102A600000EB800063689B00B0FBF3F0A7FB003035
:102A7000400908FB10684FEA081808F13208A7FB64
:102A80000837C7F3431723682F449F600DE123687D
:102A9000874A93425BD002F58062934257D0FFF79A
:102AA00045FE00EB800000EB800065686D00B0FB28
:102AB000F5F5804FA7FB05356D092E01FFF736FEB2
:102AC00000EB800000EB800065686D00B0FBF5F95D
:102AD000FFF72CFE00EB800000EB800065686D00C6
:102AE000B0FBF5F5A7FB05356D094FF0640808FB51
:102AF0001595ED003235A7FB05356D096D0005F420
:102B0000F8753544FFF712FE00EB800000EB800003
:102B100066687600B0FBF6F6FFF708FE00EB800073
:102B200000EB800063685B00B0FBF3F3A7FB0323BB
:102B30005B0908FB13684FEAC80808F13208A7FBD5
:102B40000837C7F3421723682F449F60ADE0FFF7B3
:102B5000FDFD00EB800000EB800065686D00B0FBC0
:102B6000F5F5544FA7FB05356D092E01FFF7EEFD76
:102B700000EB800000EB800065686D00B0FBF5F9AC
:102B8000FFF7E4FD00EB800000EB800065686D005E
:102B9000B0FBF5F5A7FB05356D094FF0640808FBA0
:102BA0001595ED003235A7FB05356D096D0005F46F
:102BB000F8753544FFF7CAFD00EB800000EB80009C
:102BC00066687600B0FBF6F6FFF7C0FD00EB80000C
:102BD00000EB800063685B00B0FBF3F3A7FB03230B
:102BE0005B0908FB13684FEAC80808F13208A7FB25
:102BF0000837C7F3421723682F449F6055E0FFF75B
:102C0000A5FD00EB800000EB80006568AD00B0FB27
:102C1000F5F5284FA7FB05356D092E01FFF796FD49
:102C200000EB800000EB80006568AD00B0FBF5F9BB
:102C3000FFF78CFD00EB800000EB80006568AD00C5
:102C4000B0FBF5F5A7FB05356D094FF0640808FBEF
:102C500015952D013235A7FB05356D0905F0F005F9
:102C60003544FFF773FD00EB800000EB80006668E1
:102C7000B600B0FBF6F6FFF769FD00EB800000EB55
:102C8000800063689B00B0FBF3F0A7FB00304009B5
:102C900008FB10684FEA081808F13208A7FB08374C
:102CA000C7F3431723682F449F60BDE8F88300BF34
:102CB000001001401F85EB512DE9F04105460F46FC
:102CC00016469846069C2B681B6837EA03030CBF20
:102CD00001230023B3421DD1B4F1FF3FF3D02CB147
:102CE000FEF72EF9A0EB0800A042ECD92A68D368C1
:102CF00023F4D073D3602A68536923F0010353612E
:102D0000202385F8393085F83A30002385F83830AB
:102D1000032000E00020BDE8F08158B310B5044660
:102D200090F839300BB3242384F839302268D36803
:102D300023F40053D3602046FFF724FE2268136972
:102D400023F4904313612268536923F02A035361EB
:102D50002268D36843F40053D3600020E06320234B
:102D600084F8393084F83A3010BD80F83830FFF7F5
:102D7000DDFDD8E7012070472DE9F04182B01E4605
:102D800090F83930DBB2202B55D104460D469046E1
:102D9000002955D0002A55D090F83830012B53D057
:102DA000012380F838300023C363212380F83930B1
:102DB000FEF7C6F80746A4F82480A4F8268010E0A1
:102DC00000963B46002280212046FFF775FF002831
:102DD0003CD12B882268C3F3080353602369C3B92D
:102DE0000235E38C9BB2B3B1E38C013B9BB2E3842D
:102DF000A368B3F5805FE3D000963B4600228021B4
:102E00002046FFF759FF18BB2A7823685A6001351E
:102E1000E7E70135E5E700963B46002240212046E2
:102E2000FFF74AFF0346A8B9202284F83920002280
:102E300084F8382000E00223184602B0BDE8F08193
:102E40000123F9E70123F7E70223F5E70323F3E77B
:102E50000323F1E70323EFE700B58DB01648174BC6
:102E600003600023436083604FF6FF72C26003611A
:102E70000122039204930592069307930893099203
:102E80000A930B9303A901F04DF950B90023019364
:102E9000029301A90848FEF7CFFC38B90DB05DF8E0
:102EA00004FBB7210648FFF79FFCEFE7BE2104486B
:102EB000FFF79AFCF2E700BFC003002000040040C7
:102EC000BC7D000800B58DB01648174B0360002389
:102ED000436083604FF6FF72C26003610122039278
:102EE0000493059206930793089309920A930B9310
:102EF00003A901F017F950B900230193029301A926
:102F00000848FEF799FC38B90DB05DF804FBD821EC
:102F10000648FFF769FCEFE7DF210448FFF764FC90
:102F2000F2E700BF4003002000080040BC7D00081D
:102F300000B587B01848194B03600923436000238C
:102F4000836040F2E732C260036101F0B9F898B9DA
:102F500006A94FF4805341F8103D0F4800F009FFD7
:102F600078B900230093019369460B48FEF764FC8F
:102F700060B907B05DF804FBF0210948FFF734FCA5
:102F8000E6E7F6210648FFF72FFCEAE7FD210448B3
:102F9000FFF72AFCEDE700BF84030020000C00408F
:102FA000BC7D000882B00368104A934204D0B3F19C
:102FB000804F0ED002B07047002300930C4B5A6C28
:102FC00042F001025A645B6C03F001030093009B22
:102FD000F0E700230193064B1A6C42F001021A64D9
:102FE0001B6C03F001030193019BE3E70000014028
:102FF0000038024000B589B003681D4A934205D0ED
:103000001C4A93421BD009B05DF804FB00230193D6
:1030100002F50D32116C41F002011164126C02F0E4
:1030200002020192019AC0220392022204920593A5
:103030000693079203A91048FDF7C2FFE3E70023B8
:10304000029302F50C32116C41F004011164126C10
:1030500002F004020292029AC02203920222049217
:1030600005930693079203A90448FDF7A9FFCAE751
:10307000000400400008004000000240000402403C
:1030800002680E4B9A4200D0704700B583B0002111
:10309000019103F50B331A6C42F008021A641B6CA1
:1030A00003F008030193019B0A46322000F074FAF2
:1030B000322000F0A5FA03B05DF804FB000C0040DC
:1030C00000B587B00368134A934205D0B3F1804F2F
:1030D00011D007B05DF804FB4FF470630193022335
:1030E00002930023039304930123059301A90A4843
:1030F000FDF766FFEDE720230193022302930023EF
:10310000039304930123059301A90348FDF758FF96
:10311000DFE700BF000001400000024000B591B0B1
:1031200039483A4B0360012343600023836040F237
:10313000E732C2600361436100F0DBFF00283FD14A
:1031400000230E930F930EA92F48FEF775FB00285E
:103150003BD1602307930022089209920A920B92B6
:103160000C920D9207A9284801F05AF8002831D195
:10317000042207A9244801F053F800282FD108227F
:1031800007A9214801F04CF870BB0C2207A91E4882
:1031900001F046F868BB0023009301930293039368
:1031A00004934FF400520592069369461648FEF7C1
:1031B0006CFB18BB1448FFF783FF11B05DF804FBEC
:1031C0004A211348FFF710FBBAE751211048FFF7D7
:1031D0000BFBBEE75D210E48FFF706FBC8E7622147
:1031E0000B48FFF701FBCAE767210948FFF7FCFA24
:1031F000CBE76C210648FFF7F7FACCE778210448C3
:10320000FFF7F2FAD6E700BF1804002000000140E3
:10321000BC7D000800B58BB01B484FF080430360B5
:10322000092343600023836040F2E732C2600361F8
:1032300000F05FFFC0B900230893099308A9124862
:10324000FEF7FAFAA8B960230193002202920392D2
:10325000059201A90C4800F0E3FF78B90A48FFF78E
:103260002FFF0BB05DF804FB8B210848FFF7BCFA79
:10327000E1E792210548FFF7B7FAE4E79B2103480D
:10328000FFF7B2FAEAE700BF54040020BC7D000853
:1032900010B50C461A4B4FF080421A60586000225D
:1032A0009A6040F2E731D9601A615A61184600F01D
:1032B00020FF98B9134960230B604C6000228A609C
:1032C000CA600A614A618A610D4800F0A9FF58B9D5
:1032D00000210B4801F022F860B910BD40F2FD1149
:1032E0000948FFF781FAE5E740F209210648FFF7B0
:1032F0007BFAEDE740F20D210348FFF775FAECE7A2
:1033000054040020FC030020BC7D000838B50C46A6
:10331000644B60221A6000229A60DA601A615A6176
:103320009A6140F2B633984206DC0546A3F26C730C
:10333000984203DA5C4D01E040F2B63540F2B63314
:103340009C4205DCA3F26C739C4203DA564C01E00C
:1033500040F2B634002D3BDB524900224A6053480C
:1033600000F05EFF002850D14E494D6004224F48C6
:1033700000F056FF00284ED1002C52DB49490023B3
:103380004B600C22494800F04BFF002866D14549AC
:103390004C600822454800F043FF002864D100211A
:1033A000424800F0BBFF002864D104213F4800F0F0
:1033B000B5FF002864D108213C4800F0AFFF002889
:1033C00064D10C21394800F0A9FF002864D138BD30
:1033D0006D4234494D600022344800F021FF70B93D
:1033E000304900234B600422304800F019FF0028C8
:1033F000C2D040F237212E48FFF7F6F9BCE740F281
:1034000032212B48FFF7F0F9EAE740F23E21284845
:10341000FFF7EAF9A8E740F243212548FFF7E4F96E
:10342000AAE764421F494C600C22204800F0F8FED5
:1034300070B91C4900234B6008221C4800F0F0FEC4
:103440000028ACD040F251211948FFF7CDF9A6E78A
:103450004FF413711648FFF7C7F9EAE74FF41671F6
:103460001348FFF7C1F992E740F25D211048FFF7DA
:10347000BBF994E740F263210D48FFF7B5F994E7F3
:1034800040F266210A48FFF7AFF994E740F269215C
:103490000748FFF7A9F994E74FF41B710448FFF7B9
:1034A000A3F994E7FC0300204AFCFFFF1804002066
:1034B000BC7D000810B4294C626A12B2284B596ACC
:1034C00009B2002060625862264B1A604942596076
:1034D00007EE902AF8EEE77A9FED234A87EE847A8A
:1034E00037EE077ADFED214A27EE247AB2EE095A49
:1034F00027EE057ADFED1E5AC7EE257AC3ED027A74
:1035000007EE901AF8EEE76AC6EE847A77EEA77AAD
:1035100067EEA47A67EE857AC7EEA56AC3ED036A03
:103520000A4406EE902AF8EEE66A86EE846A66EEB3
:10353000246A66EE856A86EEA56A83ED046AD3ED99
:10354000056A36EE877A83ED057A93ED067A77EE93
:10355000277AC3ED067A5DF8044B704700040040FB
:10356000000800401C0500200000A845DB0F494072
:103570006F12833A074AD36823F4E0631B041B0CE1
:10358000000200F4E060184340F0BF6040F40030F7
:10359000D060704700ED00E030B4174BDB68C3F338
:1035A0000223C3F10704042C28BF04241D1D062D8B
:1035B00018D9033B4FF0FF3505FA04F421EA040162
:1035C000994005FA03F322EA0303194300280BDBB1
:1035D0000901C9B200F1604000F5614080F80013B4
:1035E00030BC70470023E5E700F00F000901C9B2C5
:1035F000024B1954F4E700BF00ED00E014ED00E0C9
:1036000000F01F02400901239340024A42F8203093
:10361000704700BF00E100E00138B0F1807F0AD2BE
:10362000064B5860064AF02182F82310002098606B
:1036300007221A6070470120704700BF10E000E0C9
:1036400000ED00E0042805D0054A136823F00403C8
:1036500013607047024A136843F004031360704715
:1036600010E000E0704708B5FFF7FCFF08BD000060
:10367000494B5A6822F440325A605A6841680A43FA
:103680005A600268536823F4807353600268536879
:10369000016943EA012353600268536823F04073D1
:1036A00053600268536881680B43536002689368F3
:1036B00023F40063936002689368C1680B439360CE
:1036C000826A364B9A4249D00268936823F070634D
:1036D000936002689368816A0B4393600268936801
:1036E00023F04053936002689368C16A0B43936070
:1036F0000268936823F0020393600268936881690B
:1037000043EA41039360036A002B32D10268536895
:1037100023F4006353600268D36A23F47003D36216
:103720000168CB6AC269013A43EA0253CB6202687C
:10373000936823F40073936002689368016B43EA13
:10374000412393600268936823F480639360026866
:103750009368416943EA81239360704702689368E4
:1037600023F0706393600268936823F04053936082
:10377000BEE70268536843F400635360026853680D
:1037800023F46043536001684B68426A013A43EA9C
:1037900042334B60BFE700BF002301400100000F30
:1037A00030B310B50446036C43B1236C13F0100F13
:1037B0000AD00120002384F83C3010BD436480F817
:1037C0003C30FDF797FDF0E7236C23F4885323F09A
:1037D000020343F0020323642046FFF749FF002061
:1037E0006064236C23F0030343F001032364E1E7E7
:1037F0000120704782B00023019390F83C30012BE8
:1038000063D0012380F83C3003689A6812F0010FFE
:1038100013D19A6842F001029A60304B1B68304A1B
:10382000A2FB03239B0C03EB4303019302E0019BE8
:10383000013B0193019B002BF9D10268936813F0BF
:10384000010F44D0036C23F4E06323F0010343F43D
:1038500080730364536813F4806F05D0036C23F402
:10386000405343F480530364036C13F4805F19D016
:10387000436C23F006034364002380F83C306FF070
:1038800022031360174B5B6813F01F0F0DD1036801
:103890009A6812F0405F1DD19A6842F080429A60A7
:1038A000002015E000234364E6E703680E4A9342D4
:1038B00001D000200CE09A6812F0405F0CD19A68A9
:1038C00042F080429A60002002E0022000E00020E6
:1038D00002B070470020FBE70020F9E70800002055
:1038E00083DE1B43002301400020014090F83C3060
:1038F000012B19D0012380F83C300268936823F033
:103900000103936003689B6813F0010F07D1036CF8
:1039100023F4885323F0010343F0010303640023DD
:1039200080F83C30184670470220704703689A6858
:1039300012F4806F03D09B6813F4807F1CD170B5A4
:103940000D460446FDF7FCFA064623681A6812F095
:10395000020F1AD1B5F1FF3FF7D025B1FDF7F0FA0C
:10396000801BA842F1D9236C43F004032364002395
:1039700084F83C3003202DE0036C43F02003036403
:10398000002380F83C30012070476FF012021A606B
:10399000236C43F40073236423689A6812F0405F39
:1039A00017D1A269BAB9DA6A12F4700F03D09B6812
:1039B00013F4806F11D1236C23F480732364236C80
:1039C00013F4805F0BD1236C43F0010323640020C8
:1039D00000E0002070BD0020FCE70020FAE7002096
:1039E000F8E70368D86C704730B482B000230193C5
:1039F00090F83C30012B00F0B780012380F83C3078
:103A00000B68092B3ED90568EA689BB203EB4303B8
:103A10001E3B072404FA03F322EA0303EB60056864
:103A2000EA688C680B8803EB43031E3B04FA03F33C
:103A30001343EB604B68062B3AD805686A6B03EBBF
:103A40008303053B1F2404FA03F322EA03036B6399
:103A500005686A6B4B6803EB8303053B0C8804FA2B
:103A600003F313436B630268404B9A4250D00268E1
:103A70003E4B9A4255D0002380F83C30184602B0A5
:103A800030BC704705682A699BB203EB43030724E7
:103A900004FA03F322EA03032B6105682A698C68A0
:103AA0000B8803EB430304FA03F313432B61C1E7D1
:103AB0000C2B16D805682A6B03EB8303233B1F24CA
:103AC00004FA03F322EA03032B6305682A6B4B68AD
:103AD00003EB8303233B0C8804FA03F313432B63A8
:103AE000C1E70568EA6A03EB8303413B1F2404FA3C
:103AF00003F322EA0303EB620568EA6A4B6803EB0F
:103B00008303413B0C8804FA03F31343EB62AAE7F7
:103B10000B68122BABD1164A536843F480035360F1
:103B2000A5E70B68103B012BA5D8114A536843F455
:103B3000000353600B68102B9DD10E4B1B6802F1E4
:103B4000467202F52E3202F28332A2FB03239B0C53
:103B500003EB83035A00019202E0019B013B0193B6
:103B6000019B002BF9D186E7022088E70020014065
:103B7000002301400800002008B50320FFF7FAFCED
:103B8000002211466FF00B00FFF706FD00221146E0
:103B90006FF00A00FFF700FD002211466FF00900E8
:103BA000FFF7FAFC002211466FF00400FFF7F4FC67
:103BB000002211466FF00300FFF7EEFC00221146D1
:103BC0006FF00100FFF7E8FC002211464FF0FF30D4
:103BD000FFF7E2FC08BD000070B4036A23F00103A4
:103BE0000362036A4268846924F073040D6845EA3D
:103BF000040623F002048B6823430C4DA84202D034
:103C00000B4CA0420BD123F00803CD682B4323F0CB
:103C1000040322F440724D6915438A692A434260C5
:103C200086614A684263036270BC704700000140CD
:103C30000004014030B4036A23F480730362036A12
:103C40004268C46924F073040D682C4323F40073A4
:103C50008D6843EA05230E4DA84203D005F5806523
:103C6000A8420ED123F40063CD6843EA052323F470
:103C7000806322F440524D6942EA05128D6942EA9E
:103C800005124260C4614A68C263036230BC704777
:103C90000000014030B4036A23F480530362036AD6
:103CA0004468C26922F4E6420D6842EA052223F420
:103CB00000538D6843EA0533094DA84203D005F54A
:103CC0008065A84204D124F480444D6944EA8514F7
:103CD0004460C2614A680264036230BC704700BF3E
:103CE0000000014010B4036A046A24F00104046275
:103CF000846924F0F00444EA021223F00A030B431F
:103D0000826103625DF8044B704710B4036A23F0CC
:103D1000100303628469036A24F4704444EA0232A3
:103D200023F0A00343EA0113826103625DF8044BB0
:103D30007047836823F0700341F0070119438160E5
:103D4000704710B4846824F47F4442EA03230B4391
:103D5000234383605DF8044B70470268D36843F0E7
:103D60000103D3600268136843F00103136000206D
:103D7000704790F83830012B7DD010B504460123F0
:103D800080F83830022380F839300268936823F4D1
:103D90007F4323F0770393600B68402B57D010D9F3
:103DA000702B3ED01FD8502B47D0602B32D1CA6821
:103DB00049680068FFF7A9FF60212068FFF7B9FF95
:103DC00028E0102B4DD008D9202B4FD0302B21D1FB
:103DD00030210068FFF7ADFF1CE0DBB9002100686F
:103DE000FFF7A7FF16E0B3F5805F0ED0B3F5005FD5
:103DF00010D1CB684A6889680068FFF7A2FF226883
:103E0000936843F48043936004E00268936823F06E
:103E100007039360012384F83930002084F83800C8
:103E200010BDCB684A6889680068FFF78AFF22687E
:103E3000936843F077039360ECE7CA6849680068C9
:103E4000FFF750FF50212068FFF773FFE2E7CA68D1
:103E500049680068FFF746FF40212068FFF769FFC7
:103E6000D8E710210068FFF764FFD3E7202100683E
:103E7000FFF75FFFCEE7022070477047704770473B
:103E80007047704710B5044603681A6912F0020FB4
:103E900011D0DA6812F0020F0DD06FF002021A6131
:103EA0000123037603689B6913F0030F70D0FFF7BB
:103EB000E6FF0023237623681A6912F0040F12D05C
:103EC000DA6812F0040F0ED06FF004021A610223B8
:103ED000237623689B6913F4407F5FD02046FFF769
:103EE000CEFF0023237623681A6912F0080F12D040
:103EF000DA6812F0080F0ED06FF008021A6104237E
:103F000023762368DB6913F0030F4ED02046FFF7BA
:103F1000B6FF0023237623681A6912F0100F12D01F
:103F2000DA6812F0100F0ED06FF010021A61082339
:103F300023762368DB6913F4407F3DD02046FFF7EA
:103F40009EFF0023237623681A6912F0010F03D025
:103F5000DA6812F0010F36D123681A6912F0800F67
:103F600003D0DA6812F0800F34D123681A6912F096
:103F7000400F03D0DA6812F0400F32D123681A697B
:103F800012F0200F03D0DA6812F0200F30D110BDEC
:103F9000FFF774FF2046FFF773FF8AE72046FFF71D
:103FA0006DFF2046FFF76CFF9BE72046FFF766FF9B
:103FB0002046FFF765FFACE72046FFF75FFF20468E
:103FC000FFF75EFFBDE76FF001021A612046FFF7C1
:103FD00054FFC1E76FF080021A612046FDF782FCB2
:103FE000C3E76FF040021A612046FFF74AFFC5E7BA
:103FF0006FF020021A612046FDF773FCC7E700004E
:1040000003682E4A904212D0B0F1804F0FD0A2F533
:104010007C4290420BD002F58062904207D002F5BC
:104020008062904203D002F57842904203D123F09F
:1040300070034A681343214A90422AD0B0F1804F5E
:1040400027D0A2F57C42904223D002F580629042B4
:104050001FD002F5806290421BD002F57842904258
:1040600017D002F57052904213D002F58062904250
:104070000FD002F5806290420BD0A2F598329042A8
:1040800007D002F58062904203D002F58062904230
:1040900003D123F44073CA68134303608B68C3627F
:1040A0000B688362054B984203D003F58063984206
:1040B00001D10B6903630123436170470000014094
:1040C000A8B110B5044690F839305BB1022384F8EA
:1040D0003930211D2068FFF793FF012384F8393020
:1040E000002010BD80F83830FEF7CAFFEEE701204F
:1040F0007047A8B110B5044690F839305BB102237F
:1041000084F83930211D2068FFF77AFF012384F8F5
:104110003930002010BD80F83830FEF743FFEEE75D
:1041200001207047002847D0F8B505460C4690F8A6
:104130003930002B3BD0022385F83930294651F81D
:10414000042B936823F0070393602868FFF758FF58
:1041500029688A688E690F6A2068104326F44076C1
:1041600026F00306A268A36942EA0323334323F43B
:104170007C4323F0FC03E668E26946EA02261E431C
:10418000226A1303226943EA0213334327F0AA0782
:104190006268646942EA04123A43886029688B6164
:1041A0002B681A62012385F839300020F8BD80F8A9
:1041B0003830FEF71FFFBEE70120704730B4036AB6
:1041C00023F010030362036A4468826922F4E64222
:1041D0000D6842EA052223F020038D6843EA0513A7
:1041E0000E4DA84203D005F58065A8420ED123F0FC
:1041F0008003CD6843EA051323F0400324F44064B0
:104200004D6944EA85048D6944EA8504446082610D
:104210004A688263036230BC704700BF00000140FF
:1042200038B590F83830012B66D00D46044601238E
:1042300080F83830022380F839300C2A1AD8DFE8A9
:1042400002F00719191920191919341919194700F9
:104250000068FFF7C1FC2268936943F0080393618B
:104260002268936923F004039361226893692969A2
:104270000B439361012384F83930002084F838001F
:1042800038BD0068FFF79AFF2268936943F4006322
:1042900093612268936923F4806393612268936930
:1042A000296943EA01239361E4E70068FFF7C2FC50
:1042B0002268D36943F00803D3612268D36923F0ED
:1042C0000403D3612268D36929690B43D361D1E721
:1042D0000068FFF7DFFC2268D36943F40063D36111
:1042E0002268D36923F48063D3612268D369296982
:1042F00043EA0123D361BDE70220C1E710B40123E3
:1043000003FA01F4036A23EA04030362036A8A409E
:10431000134303625DF8044B7047000010B5044678
:1043200001220068FFF7EAFF2368094A934203D09D
:1043300002F58062934203D15A6C42F400425A64FF
:104340002268136843F001031360002010BD00BF12
:104350000000014010B5044661B1042916D00122C5
:1043600000210068FFF7CAFF012204212068FFF73F
:10437000C5FF04E0012200210068FFF7BFFF2268AB
:10438000136843F001031360002010BD01220421D3
:104390000068FFF7B3FFF2E708B50E480E4B036065
:1043A0004FF48273436000238360C3600361436101
:1043B0004FF400728261C3610362436283620A2325
:1043C000C362FDF7FEFB00B908BD45210348FEF7B7
:1043D0000BFAF9E79004002000380040C87D00087F
:1043E0000268124B9A4200D0704700B587B0002196
:1043F000009103F500331A6C42F480421A641B6C7E
:1044000003F480430093009B4FF460430193022325
:1044100002930391032304930523059301A9044800
:10442000FCF7CEFD07B05DF804FB00BF003800408C
:104430000004024030B583B00446114D00224FF411
:1044400080512846FCF7A7FE64F07F0402A901F81A
:10445000014D0C4C642301222046FDF7F2FB64233E
:1044600001220DF106012046FDF7DAFD01224FF48D
:1044700080512846FCF78FFE9DF8060003B030BD42
:10448000000402409004002030B583B00446134D70
:1044900000224FF480512846FCF77DFE64F07F0433
:1044A00002A901F8014D0E4C642301222046FDF7BC
:1044B000C8FB642301220DF106012046FDF7B0FD83
:1044C0009DF80640240224B201224FF48051284670
:1044D000FCF761FE204603B030BD00BF000402407F
:1044E0009004002070B584B08DF8071000F07F00B4
:1044F00004AC04F8010D0E4D00224FF48051284603
:10450000FCF749FE0B4E6423012221463046FDF79D
:1045100098FB642301220DF107013046FDF791FB62
:1045200001224FF480512846FCF735FE04B070BDDF
:10453000000402409004002010B57520FFF77AFFB8
:10454000044601460D4801F0EDFB702C08D0FDF744
:104550003FFA4FF47A70FCF7F9FCFDF755FAF6E7ED
:1045600000216B20FFF7BEFF00211A20FFF7BAFFE2
:1045700018211B20FFF7B6FF10BD00BFD47D000837
:1045800010B54720FFF780FF04464820FFF752FF91
:1045900000B2204300B2024B5C68001B00B210BDA9
:1045A00048340020044B00225A601A8003490A80D4
:1045B0000022DA609A60704748340020F804002036
:1045C00010B54720FFF760FF04464820FFF732FF91
:1045D00000B204430E4BB3F9003040F2FE32934276
:1045E0000DDD0B494B680B4A82FB03021A44DB17B3
:1045F000C3EB62234B60084B01221A8010BD24B22A
:10460000034A51680C44546001331380F6E700BF3D
:104610004834002003082080F804002070B50D46BF
:104620001646002404E0AFF3008028700134013501
:10463000B442F8DB304670BD70B51646002405E084
:104640004D1C0878FEF792F801342946B442F7DB96
:10465000304670BD08B503460B4A126842B10A4A9B
:10466000106803446A46934206D8074A136008BD9F
:10467000054A06491160F2E700F0BAFE0C23036018
:104680004FF0FF30F3E700BFF801002050C80020D2
:104690004FF0FF3070474FF400534B6000207047DD
:1046A000012070470020704730EE600A20EE011AAA
:1046B000DFED0D7A20EE270AD0ED007A30EE270AE2
:1046C00080ED000A20EE210AC1ED000A70EEE00A3A
:1046D00060EE820A31EE000A70EE200A034B93ED81
:1046E000000A80EE800A70476F12833AEC040020C3
:1046F00013880133138007EE900AF8EEE77A9FEDF6
:10470000097A27EE877AB1F9003007EE903AF8EE91
:10471000E77A77EE877AFDEEE77A17EE903A0B802C
:10472000704700BF6F12833A30B52DED048B85B012
:10473000364B9980C1F5967307EE903AF8EEE77A1A
:104740009FED337AC7EE878AC2F5967207EE902AFC
:10475000F8EEE77A87EE878A07EE900AB8EEE77AF6
:1047600001F5967107EE901AF8EEE77A67EEA86AFF
:10477000B6EE006A66EE866A37EE667A67EE887A8B
:1047800067EE867A77EE677A9FED227A87EE879AD0
:1047900018EE900AFBF7D8FE04460D4618EE100AF4
:1047A000FBF7D2FECDE9020119EE100AFBF7CCFEB1
:1047B000CDE9000122462B46174801F0B3FADFEDA0
:1047C000177A68EEA78A29EE279A28EE278AFCEE48
:1047D000E88A134B18EE902A1A80BCEEC99A114B46
:1047E00019EE102A1A80BCEEC88A0F4B18EE102A58
:1047F0001A800E4B0E4A1A600E4B0F4A1A600F4B6E
:1048000000221A6005B0BDEC048B30BD4C050020C1
:1048100000007A4500009643E47D000800007A44D9
:10482000F4040020F00400201205002004020020FF
:104830000000A041000200200000B442FC01002062
:104840000023084A1380084A1380084A1380084B43
:10485000084A1A60084B00221A60084B084A1A607E
:10486000704700BFF4040020F0040020120500206F
:10487000040200200000A04100020020FC010020F2
:10488000000020412DE9F0412DED028B3A4B1A88B2
:104890003A4B1B889A424CD339490888C1188A423E
:1048A00053DB3849098801440B449A4258DB364BA4
:1048B00093ED048A354B00229A80F0EE488ADFF8A7
:1048C000CC80B8F9043000EE103A314F314E324D01
:1048D000324C97ED002AD6ED001A95ED001A2146CC
:1048E0002F48F0EE480AB8EEC00AFFF7DDFEBDEE35
:1048F000C00A2C4B10EE102A1A80B8F9043000EED2
:10490000103A97ED002AD6ED001A95ED001A211DF8
:104910002548F0EE680AB8EEC00AFFF7C5FEBDEE06
:10492000C00A224B10EE102A1A80BDEC028BBDE8A3
:10493000F081154B93ED028AD3ED038A0E4A1C4990
:104940004FF47A60FFF7D4FEB9E70F4B93ED028A7C
:10495000D3ED038A084A16490020FFF7C9FEAEE7E7
:10496000094B93ED028AD3ED038A034A104911489B
:10497000FFF7BEFEA3E700BFE8040020F404002018
:10498000F0040020120500201C0500204C0500202A
:10499000FC01002000020020040200203805002055
:1049A000EC020020F0020020F8020020F2020020B9
:1049B0005005002060F0FFFF30B52DED048B85B071
:1049C000354B9981C1F5967307EE903AF8EEE77A88
:1049D0009FED327AC7EE878AC2F5967307EE903A5A
:1049E000F8EEE77A87EE878A07EE900AB8EEE77A64
:1049F00001F5967307EE903AF8EEE77A67EEA87A3B
:104A0000F6EE006A67EEA67A77EE677A02F596739D
:104A100007EE103AB8EEC77A27EE087A27EE267A24
:104A200037EEC77ADFED1E7A87EE279A18EE900AE6
:104A3000FBF78AFD04460D4618EE100AFBF784FDCD
:104A4000CDE9020119EE100AFBF77EFDCDE9000168
:104A500022462B46134801F065F9DFED137A68EE24
:104A6000A78A29EE279A28EE278AFCEEE88A0F4BC0
:104A700018EE902A1A80BCEEC99A0D4B19EE102A36
:104A80001A80BCEEC88A0B4B18EE102A1A8005B0AB
:104A9000BDEC048B30BD00BF4C0500200000FA4483
:104AA00000009643E47D000800007A44F2040020F0
:104AB000400500203EC100200023034A1380034A22
:104AC0001380034A13807047F20400204005002041
:104AD0003EC1002008B5214B1A88214B1B889A4201
:104AE00028D320490888C1188A422ADB1E49098830
:104AF00001440B449A422ADB1C4B00229A811B4B37
:104B0000B3F90C3000EE103A194BB3EE0E2AF7EE63
:104B1000001AB2EE0A1A1946181DD3ED020AB8EEB1
:104B2000C00AFFF7C1FDBDEEC00A124B10EE102AFD
:104B30001A8008BD094A10494FF4FA60FFF7D8FD02
:104B4000DDE7064A0C490020FFF7D2FDD7E7034A0C
:104B500009490A48FFF7CCFDD1E700BFEA0400206D
:104B6000F2040020400500203EC100204C0500203A
:104B700050340020FC0200205805002030F8FFFFD0
:104B800008B50E4BB3F90230012B09D000210846BD
:104B90000A4BB3F90430012B09D0FEF7B7FB08BD6F
:104BA000074BB3F90000074BB3F90010F0E7064BD1
:104BB0001B88C01A00B2194409B2EEE7F8040020BD
:104BC000F0020020F2020020FC02002008B54FF4A1
:104BD0009671FEF75DFB4FF49670FCF7B7F9002174
:104BE0000A20FEF755FB08BD08B5214B1B7E012BA3
:104BF00023D001224FF400511E48FCF7CCFA1C4B85
:104C00005B7E012B20D001224FF480711948FCF704
:104C1000C2FA174B9B7E012B1DD001228021154823
:104C2000FCF7B9FA124BDB7E012B1AD001224FF4AC
:104C300080411048FCF7AFFA08BD00224FF4005144
:104C40000C48FCF7A8FADAE700224FF48071094813
:104C5000FCF7A1FADDE7002280210648FCF79BFA69
:104C6000E0E700224FF480410248FCF794FAE3E7C2
:104C700010C100200008024010B51A4B0122DA8052
:104C8000002407E0FCF792FE012826D021461648B2
:104C900001F048F8154BD3ED057AFDEEE77A17EEF3
:104CA000903A1BB2124A82FB0312D118DA17C2EBF8
:104CB0002112C2EB021251005B1A1BB21D2BE1D173
:104CC0000134E4B2C4EB4413C4EB830358006038EE
:104CD00000F0FE00FFF77AFFD4E74C20FFF776FFE5
:104CE000204610BDF8040020F87D00081C050020B7
:104CF0008988888808B5154B0122DA800138082890
:104D000008D8DFE800F0050B0E1114171A1D20005B
:104D100000F00EF90D4B0022DA8008BD00F06CF9AE
:104D2000F8E700F015F8F5E700F072F8F2E700F0A8
:104D3000CFF8EFE700F03CF8ECE700F097F8E9E790
:104D400000F046F9E6E700F057F9E3E7F804002041
:104D500008B5154B1B7E012BFBD1134BDB7E012BC2
:104D6000F7D14C20FFF732FF4FF4FA70FCF7EEF862
:104D7000FFF718FC00221146B420FFF71DFE40F299
:104D8000DC50FCF7E3F84C20FFF720FF074B012233
:104D90009A80FCF70BFE0128FBD1044B00229A807D
:104DA0005B20FFF713FF08BD10C10020F8040020AE
:104DB00008B5154B1B7E012BFBD1134BDB7E012B62
:104DC000F7D14C20FFF702FFFFF7ECFB0022114662
:104DD000B420FFF7F1FDFFF733FD40F2DC50FCF7A4
:104DE000B5F84C20FFF7F2FE084B01229A805A805A
:104DF000FCF7DCFD0128FBD1044B00229A805A808D
:104E00005B20FFF7E3FE08BD10C10020F80400207E
:104E100008B5144B1B7E012BFBD1124BDB7E012B03
:104E2000F7D14C20FFF7D2FE4FF4FA70FCF78EF862
:104E3000FFF7B8FBFFF740FE40F2DC50FCF786F8C6
:104E40004C20FFF7C3FE084B01229A80FCF7AEFD11
:104E50000128FBD1044B00229A805B20FFF7B6FEAD
:104E600008BD00BF10C10020F804002008B5164B93
:104E70001B7E012BFBD1144BDB7E012BF7D14C2089
:104E8000FFF7A4FE4FF4FA70FCF760F8FFF78AFB17
:104E9000FFF712FEFFF7D4FC40F2DC50FCF756F8A7
:104EA0004C20FFF793FE094B01229A805A80FCF7B1
:104EB0007DFD0128FBD1054B00229A805A805B20A2
:104EC000FFF784FE08BD00BF10C10020F8040020D9
:104ED00008B5154B1B7E012BFBD1134BDB7E012B41
:104EE000F7D14C20FFF772FEFFF75CFB0022114662
:104EF000B420FFF719FCFFF7DFFD4FF47A70FCF7E1
:104F000025F84C20FFF762FE084B01225A809A8058
:104F1000FCF74CFD0128FBD1044B00225A809A80FB
:104F20005B20FFF753FE08BD10C10020F8040020ED
:104F30002DE9F04184B000241D4BDC801D4B1B8803
:104F40001D4A12881D4909881D4800F0EBFE40F6F5
:104F5000B7339C4229D8A2001A4911441A4B1A446B
:104F6000156804F6B83203EB8203D3F800800868B2
:104F7000FBF7EAFA06460F464046FBF7E5FACDE9AD
:104F800002012846FBF7E0FACDE9000132463B4634
:104F90000E4800F0C7FEFCF709FD012802D00134DD
:104FA000A4B2D4E75B20FFF711FE04B0BDE8F081A6
:104FB000F804002012050020F0040020F404002072
:104FC000087E000828920020603400201C7E000823
:104FD00008B5084B0122DA80FFF706FEFCF7E6FC75
:104FE0000128F6D15B20FFF7F1FD024B0022DA80A9
:104FF00008BD00BFF804002008B5064B0022DA8087
:1050000000F04EF800F056F800F09EF800F058F965
:1050100008BD00BFF804002008B500239FED177AF3
:1050200008E0174A128807EE902AF8EEE77A37EE82
:10503000277A0133312BF4DDDFED127AC7EE276AD0
:10504000DFED117A86EEA77ADFED107A27EE277A68
:10505000DFED0F6AC7EE267A9FED0E7A67EE877A4C
:105060000D4BC3ED007A17EE900AFBF76DFA02467E
:105070000B460A4800F056FE08BD00BF00000000C5
:10508000100500200000484200F07F450000054365
:105090000000044233335340EC040020FC7D000840
:1050A000034B07221A705A7003229A70DA70704705
:1050B00044C8002030B4002018E0214B03EB00135B
:1050C0000B44002283F8022383F8022283F802248F
:1050D00083F8022583F8022683F802210131C9B240
:1050E000184B1B788B42E8D20130C0B2154B5C786C
:1050F000844201D30021F3E7114B012283F80223FC
:1051000083F81225002315E00D4A02EB0410184421
:10511000012180F80213D01880F8021503F1400035
:1051200002EB0010817002EB03122A4482F8021293
:105130000B44DBB2034A15789D42E5D230BC704780
:1051400040C1002044C80020F0B55B4BD9789A7864
:105150005A4B03EB01131344012283F8022100216F
:105160001CE0564A02EB01121A44002090700133F1
:10517000DBB2514A12789A420ED3504A02EB011226
:105180001A4492F80221012AEBD04C4A02EB011298
:105190001A44FF209070EAE70131C9B2464B5F78AC
:1051A0008F4201D30023E4E700264FF0010C7BE09F
:1051B000711C424A02EB05121A449170E6463EE029
:1051C000711C3E4A02EB041202449170E64647E02D
:1051D000711C3A4A02EB041202449170E64675B122
:1051E000364A02EB0412024492F802253AB9621ED2
:1051F000324901EB021202449278B24243D00133A9
:10520000DBB22D4A1178994245D32C4618462B4AD9
:1052100002EB05121A449278FF2AF0D199420ED976
:10522000264A02EB05121A4492F802223AB95A1C95
:10523000224901EB05110A449278B242B8D0AF423C
:105240000ED91E4A02EB0412024492F802233AB924
:10525000621C1A4901EB021202449278B242AFD0AA
:10526000002BBCD0154A02EB0412024492F802242F
:10527000002AB4D1421E114901EB04110A4492786C
:10528000B242ACD1A4E7711C0C4A02EB04142044D6
:105290008170E646B3E70135EDB2AF4201D300239A
:1052A000AFE70136F6B2F446BCF1010F02D100259A
:1052B000AE46F2E7F0BD00BF44C8002040C1002068
:1052C000F8B5002542E02D4800F02CFD0134E4B291
:1052D0002B4B1B78A34210D32B2000F03BFD294B16
:1052E00003EB0513234493F80235012BEBD0002B7D
:1052F000ECD1254800F016FDE8E7244800F09AFDBF
:1053000000240CE07C2000F025FD1E4B03EB07136E
:10531000334499781E4800F005FD0134E4B2184B7F
:105320001B78A3420DD32F462646164B03EB0513DD
:10533000234493F80234012BE4D0202000F00AFD2E
:10534000E3E7144800F076FD0135EDB20C4B5B78D5
:10535000AB4201D30024BBE7002407E02B2000F080
:10536000F9FC064800F0DEFC0134E4B2044B1B7883
:10537000A342F3D2084800F05DFDF8BD287E000886
:1053800044C8002040C100202C7E0008307E000868
:10539000347E0008387E00083C7E0008DFF834D0F8
:1053A000002103E00C4B5B58435004310B480C4B7D
:1053B00042189A42F6D30B4A02E0002342F8043B1B
:1053C000094B9A42F9D3FBF7D5FD00F017F8FDF72A
:1053D0006DFA7047000002201081000800000020D4
:1053E000DC010020DC0100204CC80020FEE70000AA
:1053F000014B1868704700BF0C00002070B50D4EBF
:105400000D4CA41BA4100025A54209D10B4E0C4C39
:1054100002F0AAFCA41BA4100025A54205D170BD72
:1054200056F8253098470135EEE756F8253098476D
:105430000135F2E7088100080881000808810008AA
:105440000C81000810B5431E0A44914200D110BDE2
:1054500011F8014B03F8014FF7E70244034693426A
:1054600000D1704703F8011BF9E72DE9FF4755EC20
:10547000104B0D9FDDF830A0002D0E4691461946C9
:10548000B8BF22462B4627F02007BBBF05F10043DB
:105490001D4600232D23B8BF1446462F0B7004D0A1
:1054A000452F00D10136022100E0032103AB019317
:1054B00002AB00933246534645EC104B00F0C4FE5D
:1054C000472F804602D119F0010F26D0462F08EB56
:1054D000060911D198F80030302B0AD100220023A0
:1054E00020462946FBF7F0FA18B9C6F10106CAF8BA
:1054F0000060DAF800309944002200232046294653
:10550000FBF7E2FA38B93022039B4B4505D2591C10
:1055100003911A70F8E7CDF80C90039B0E9AA3EB59
:1055200008034046136004B0BDE8F087F7B50029D2
:105530000446BABF49422D232B23092904F8022B24
:10554000437020DD0DF107031F460A2691FBF6F597
:1055500006FB15113031092D03F8011C03F1FF3250
:10556000294609DC3031023B02F8011CBB422246CD
:1055700004D3101A03B0F0BD1346E7E713F8012B6C
:1055800004F8012BF2E7302319448370021DC17027
:10559000EFE700002DE9F04F8DB00C46DDF85880A4
:1055A00016461F46054601F081FD03680493184620
:1055B000FAF70EFE00230A93D8F80030059007335F
:1055C00023F0070303F1080294F818A0D4F800B000
:1055D000C8F80020D3E90023C4E91223D4E91289D2
:1055E00029F000430793CDF818804FF0FF32A74B06
:1055F000DDE90601FBF79AFA70BB4FF0FF32A34BCF
:10560000DDE90601FBF774FA30BB002200234046B7
:105610004946FBF763FA10B12D2384F843309C4AC6
:105620009C4BBAF1470F8CBF9046984603232BF052
:105630000402236122604FF00009009733460BAA51
:105640002146284600F0E6F9013040F08D804FF009
:10565000FF300DB0BDE8F08F42464B46404649460C
:10566000FBF764FA10B18C4A8C4BDAE761684B1C8B
:105670004BF480620AA83ED1062363600023CDE983
:10568000020309AB009349EC108B0DF12303226058
:10569000CDF804A061682846FFF7E7FE0AF0DF03B3
:1056A000472B804609D1099BD81C02DB62689342D4
:1056B00047DDAAF1020A5FFA8AFABAF1650F099981
:1056C00024D80139524604F150000991FFF72EFF0A
:1056D0000A9A1318012A8146236102DC2268D10745
:1056E00001D5013323619DF82330002BA5D02D2354
:1056F00084F84330A1E7BAF1670F00F07781BAF17F
:10570000470FBBD10029B9D10123B6E7BAF1660F23
:1057100019D1002963680CDD216113B92268D20711
:1057200002D501330B442361099BA3654FF00009A7
:10573000D9E713B92268D00701D50233F3E7012373
:10574000F1E74FF0670ADDE90932934205DB226891
:105750002361D107E8D50133E5E7002BD4BFC3F1BE
:10576000020301231344DEE723685A0507D42369A3
:10577000424631462846B84701302BD167E7BAF197
:10578000650F40F2DC8000220023D4E91201FBF710
:105790009BF9002833D00123414A31462846B847B7
:1057A00001303FF454AFDDE909239A4202DB23685C
:1057B000D8070FD5DDE9042331462846B847013024
:1057C0003FF445AF4FF0000804F11A090A9B013B72
:1057D000434509DC23689B0700F10381E0680B9BCC
:1057E0009842B8BF184634E701234A463146284656
:1057F000B84701303FF42BAF08F10108E6E7099BF9
:10580000002B2BDC0123264A31462846B8470130BD
:105810003FF41DAF099B23B90A9B13B92368D9072D
:10582000D8D5DDE9042331462846B84701303FF496
:105830000EAF4FF0000904F11A0A099B5B424B4579
:1058400001DC0A9B94E70123524631462846B847BB
:1058500001303FF4FCAE09F10109EEE70A9AA36DAD
:105860009A42A8BF1A46002A914607DD13463146E0
:1058700042462846B84701303FF4E9AE04F11A0326
:105880004FF0000B29EAE979069315E0FFFFEF7F5F
:10589000487E0008447E0008507E00084C7E0008C8
:1058A000547E00080123069A31462846B847013045
:1058B0003FF4CDAE0BF1010BD4F858A0AAEB0903CD
:1058C0005B45EFDCDDE909239A42D04415DB236810
:1058D000DA0712D40A9B0999A3EB0A02A3EB010A87
:1058E0009245A8BF9246BAF1000F0EDC4FF00008B7
:1058F0002AEAEA7A04F11A0919E0DDE904233146BB
:105900002846B8470130E5D1A1E653464246314624
:105910002846B8470130E9D199E601234A46314685
:105920002846B84701303FF492AE08F10108DDE99E
:1059300009239B1AA3EB0A034345EEDC4AE70A9AC4
:10594000012A01DCDB073AD50123424631462846CD
:10595000B84701303FF47BAEDDE9042331462846E9
:10596000B847013008F101083FF471AE0A9B0022EC
:1059700003F1FF3AD4E912010023FBF7A5F8C8B9F7
:105980005346424631462846B84701300ED15EE6BE
:105990000123524631462846B84701303FF457AEFE
:1059A00008F101080A9B013B4345F1DC4B4604F139
:1059B0005002DEE64FF0000804F11A0AF2E7012374
:1059C000DFE701234A4631462846B84701303FF415
:1059D0003EAE08F10108E3680B9A9B1A4345F0DCE0
:1059E000FCE64FF0000804F11909F4E700293FF440
:1059F0008BAE0023CDE9020309AB009349EC108B79
:105A00002260CDF804A00DF123032846FFF72DFDF9
:105A1000804648E62DE9F04791461F468A680B69A3
:105A2000DDF820809342B8BF1346C9F8003091F8E2
:105A3000432006460C4612B10133C9F800302368F2
:105A4000990642BFD9F800300233C9F80030256802
:105A500015F0060507D104F1190AE368D9F800200A
:105A60009B1AAB4228DC94F843302268003318BFFD
:105A7000012392062DD404F1430239463046C04733
:105A8000013020D02368E568D9F8002003F0060330
:105A9000042B08BFAD1AA36822690CBF25EAE5757F
:105AA00000259342C4BF9B1AED184FF000091A3429
:105AB0004D451AD1002008E00123524639463046B0
:105AC000C047013003D14FF0FF30BDE8F08701350A
:105AD000C3E7E1185A1C302081F84300224494F8AF
